:060000000A128A11122809
:10000800FE00030E83120313A5000408A6000A08C5
:10001800A7007F08A8000A128A114A280A128A1122
:1000280015288313CC30FD000C30FE00BA30FF00D9
:10003800B83084000A128A1598240A128A115A3094
:10004800FD000C30FE00A730FF00473084000A1284
:100058008A1598240A128A110A128A11FF270A128D
:100068008A11FD00A0308400B8300A128A15ED23E9
:100078000A128A115A30840067300A128A15ED2351
:100088000A128A1183010A128A113D2B0B1D4D2871
:100098004E28AC283D308100831603132D08803A82
:1000A80083120313A300831603134308803A8312B1
:1000B80003132302031D64288316031342082C022A
:1000C800031C67286828A22883160313AC01AD0116
:1000D8000130AA070318AB0A0030AB0783120313D9
:1000E8005D0883160313B900831203135C08831693
:1000F8000313B80083120313DC01DD018316031315
:100108002B08803AFF0080307F02031D8D280530C0
:100118002A02031C90289128AA2801308316031369
:10012800AE000030AF00023083120313CB00003062
:10013800CC0083160313AA01AB01AA280130831649
:100148000313AC070318AD0A0030AD070B11152ACD
:100158000C1CAF28B02818295B08803AA30048086F
:10016800803A2302031DBA2847085A02031CBD28F7
:10017800BE28D32883120313DA01DB014C08803A26
:10018800FF0080307F02031DCB2801304B02031C87
:10019800CE28CF280F29831203139F140F2901306B
:1001A80083120313DA070318DB0A0030DB0747085A
:1001B800FF3EA30048080318013EFF3EA4005B0869
:1001C8002406031DE9285A0823060319EC28ED28FC
:1001D8000E294C08803AFF0080307F02031DF62864
:1001E80001304B02031CF928FA280F298312031344
:1001F8004708FE3EA30048080318013EFF3EA4003E
:100208005B082406031D0A295A082306031D0D2925
:100218000E290F299F14831203139F147D088F0042
:1002280055088E000C10152A8C1C1B291C29232903
:10023800831603138701831203138C10152A0C1FCE
:100248002629272977290C134D08A3002307A03E48
:100258008400831603131E0883138000840A831204
:1002680003131E0880004C08803AFF0080307F028C
:10027800031D402901304B02031C432944296929E5
:10028800831203135A085B04031D4B294C29572971
:10029800FF30CB070318CC0AFF30CC070130CD0064
:1002A8000030CE006D2902305A065B04031D5D291B
:1002B8005E296929FF30CB070318CC0AFF30CC0729
:1002C8000230CD000030CE006D2983120313CD011A
:1002D800CE014D08A300A30DA30D1F082306C339A3
:1002E80023069F00152A0D1E7A297B2981290D12C4
:1002F8000130E0000030E100152A0C1E8429852910
:1003080087290C12152A8C1E8A298B290F2A8C12F0
:100318005F08803AFF0080307F02031D9529013075
:100328005E02031C98299929BA29FF308312031306
:10033800DE070318DF0AFF30DF075E08563E840039
:100348001A08831380005E085F04031DAC29AD29D9
:10035800152A5808A0005708A1005608A2005908F5
:100368000A128A1537270A128A11152A83160313C7
:100378003508803AFF0080307F02031DC52901300F
:100388003402031CC829C929F42983160313B401AC
:10039800B501831203131A080A128A15BA250A121C
:1003A8008A11152A013083160313B2000030B300F6
:1003B800152A42309900152A013083160313B40018
:1003C8000030B500152A0430DE000030DF00152AA1
:1003D80083160313CA01CB01152A45309900152A43
:1003E800831203131A08A300A4012408003A03196E
:1003F800FE29F1292308613A0319D629033A03197A
:10040800DD29013A0319E029073A0319E729013AD6
:100418000319EC29F1298C1D122A132A152A8C118B
:10042800152A831203132808FF0027088A002608C4
:100438008400250E8300FE0E7E0E0900831603132A
:10044800CD003730CF002A2B2530520603192D2A2C
:100458002E2A352A52080A128A1582240A128A116B
:100468002A2BCC014F2A831603134F0884008313C9
:100478000008D200023083120313C3004308831616
:100488000313CF078316031352080A128A1582240E
:100498000A128A112A2B0130CD07FF304D0784003C
:1004A8000A128A114B240A128A11D20083120313EA
:1004B800C300C4014408003A0319632A462A4308C2
:1004C800003A03193C2B633A0319372A073A0319F0
:1004D800712A0D3A0319712A462A831603134F0805
:1004E800840083130008D000840A0008D100023079
:1004F80083120313C300430883160313CF07D11FC6
:10050800862A872A942A033083120313C3004308D8
:1005180083160313CC04D009D109D00A0319D10AD0
:10052800D201D20A520883120313C3004307013EC3
:1005380084000A128A114B240A128A11C4000A1272
:100548008A114B240A128A11C50045088316031321
:100558005102031DB52A831203134408831603139B
:1005680050020318B82AB92ABA2AC82A01308312B5
:100578000313C300430883160313D207053052063A
:10058800031DC72AC82A962A4C0803390319CD2AFD
:10059800CE2AD42A2D300A128A1582240A128A11E8
:1005A800831603135208CE001D2B0A30831203133F
:1005B800B1000030B200831603134E0883120313F0
:1005C800C3004307013E84000A128A114B240A1211
:1005D8008A11A9000A128A114B240A128A11AA0048
:1005E80083160313510883120313AC0083160313F5
:1005F800500883120313AB000A128A11B9270A1292
:100608008A11831203132A08B4002908B3000A12B6
:100618008A15BC260A128A11831203133108303E48
:1006280083160313D20052080A128A1582240A126A
:100638008A11FF3083120313C30043088316031380
:10064800CE074E0A031D292B2A2BD92A01308316DF
:100658000313CD07FF304D0784000A128A114B247B
:100668000A128A11D2005208031D3B2B3C2B282A60
:1006780008000A128A1580260A128A110A128A119B
:10068800C0260A128A11C82B3208330403194D2BCD
:100698004E2BBE2B453083120313C600622B6230EB
:1006A80083120313C600742B6D3083120313C60024
:1006B800742B613083120313C600742B8316031343
:1006C8003908003A0319692B742B3808013A0319C1
:1006D800532B033A0319582B013A03195D2B742B3A
:1006E8008312460883160313D300D40153088312D8
:1006F8000313B70083160313540883120313B800B7
:10070800831603133B0883120313BA0083160313DB
:100718003A0883120313B900831603133D088312A2
:100728000313BC00831603133C0883120313BB0096
:10073800A730BD000030BE00831603133F088312A4
:100748000313C000831603133E0883120313BF006C
:1007580083160313410883120313C200831603137D
:10076800400883120313C1000B300A128A11222297
:100778000A128A110A128A157A270A128A110A128B
:100788008A15F8260A128A11831603134A084B049D
:10079800031DCF2BD02B482B0A128A15FE230A12D1
:1007A8008A110A128A11122883120313AD008316C4
:1007B80003178C130C15831203178F01831203136D
:1007C8002D08831203178D00831603170C18ED2BC1
:1007D800EE2B4A2C83120313AE01AF01AB01AC011F
:1007E800242C8B132A08831203178C005530831688
:1007F80003178D00AA308D008C148B1783120313F6
:10080800600861040319092C0A2C022CE001E1019B
:100818002D080A128A1541250A128A118312031318
:100828002A06031D182C192C1E2C0130AB00003091
:10083800AC00242C0130AE070318AF0A0030AF0714
:100848002F08803AFF0080307F02031D2D2C0A30CC
:100858002E020318302C312C392C831203132B0849
:100868002C040319382C392CF52B831203132F0869
:10087800803AFF0080307F02031D442C0A302E028C
:10088800031C472C482C492C4A2C4A2C08000430BD
:100898008A000408840A82070034013400340A34C8
:1008A800003464340034E8340334103427345234C8
:1008B8007534693464346F3420343D3420346334FF
:1008C80061347434653467346F3472346934613434
:1008D8002034253464342C342034683475346D3431
:1008E800653464346134643420343D342034253430
:1008F80064342034253425342C342034743465345D
:100908006D347034653472346134743475347234CF
:10091800613420343D342034253464342034253483
:100928006334203443342C34203443344F34323449
:1009380020343D3420342534643420347034703409
:100948006D342C3420344C3475346D3469346E3441
:100958006F347334693464346134643420343D341E
:1009680020342534643420346C3478340D340A341B
:10097800003483120313B10030081F39E03EB2007F
:1009880000300A128A154A260A128A1100300A1201
:100998008A154A260A128A1100300A128A154A262E
:1009A8000A128A1100300A128A154A260A128A1176
:1009B800831203134A08B4004908B3003308340407
:1009C8000319E72CE82CE92C102D32080A128A1595
:1009D8004A260A128A11831203132F080A128A154B
:1009E8004A260A128A11831203132E080A128A153C
:1009F8004A260A128A118312031331080A128A1529
:100A08004A260A128A11FF3083120313B307031808
:100A1800B40AFF30B407E22CFF300A128A154A26BE
:100A28000A128A11FF300A128A154A260A128A11F6
:100A3800FF300A128A154A260A128A11FF300A1252
:100A48008A154A260A128A11080083120313AF0175
:100A5800AA1F2F2D302D372DA909AA09A90A031974
:100A6800AA0AAF01AF0AAC1F3A2D3B2D442DAB09A2
:100A7800AC09AB0A0319AC0A0130AD002D08AF066A
:100A8800B001B10129082A0403194B2D4C2D832DDF
:100A9800AE01AE0A5A2D01300310A90DAA0DFF3E72
:100AA800031D502D0130AD002D08AE07AA1F5D2D86
:100AB8005E2D4F2D01300310B00DB10DFF3E031D0B
:100AC8005F2D2A082C02031D6B2D29082B02031CFD
:100AD8006E2D6F2D762D2908AB022A08031CAC0356
:100AE800AC02301401300310AA0CA90CFF3E031D00
:100AF800772D0130AE02031D822D832D5E2D2F0828
:100B08000319872D882D8D2DB009B109B00A031955
:100B1800B10A3108AA003008A9000800F601F11F3F
:100B2800962D972D9E2DF009F109F00A0319F10A67
:100B3800F601F60AF31FA12DA22DAB2DF209F30938
:100B4800F20A0319F30A0130F4007408F606F701F3
:100B5800F801700871040319B22DB32DEA2DF501BF
:100B6800F50AC12D01300310F00DF10DFF3E031DF4
:100B7800B72D0130F4007408F507F11FC42DC52DF9
:100B8800B62D01300310F70DF80DFF3E031DC62DDD
:100B980071087302031DD22D70087202031CD52D33
:100BA800D62DDD2D7008F2027108031CF303F30241
:100BB800771401300310F10CF00CFF3E031DDE2DFD
:100BC8000130F502031DE92DEA2DC52D760803191C
:100BD800EE2DEF2DF42DF709F809F70A0319F80A95
:100BE8007808F1007708F0000800F400831603176E
:100BF8008C130C15831203178F0174088D0083164C
:100C080003170C18082E092E5D2EF501F601F201C6
:100C1800F3013B2E8B137108831203178C00553098
:100C2800831603178D00AA308D008C148B1783123E
:100C38000313600861040319222E232E1B2EE001E2
:100C4800E10174080A128A15E3240A128A1171064E
:100C5800031D2F2E302E352E0130F2000030F30008
:100C68003B2E0130F5070318F60A0030F607760820
:100C7800803AFF0080307F02031D442E0A3075023F
:100C88000318472E482E4E2E7208730403194D2E52
:100C98004E2E0E2E7608803AFF0080307F02031D0C
:100CA800572E0A307502031C5A2E5B2E5C2E5D2EC1
:100CB8005D2E0800F80077081F39E03EF900003083
:100CC8000A128A1516260A128A1100300A128A1583
:100CD80016260A128A1100300A128A1516260A12D6
:100CE8008A1100300A128A1516260A128A118312EE
:100CF80003134A08FB004908FA007A087B04031921
:100D0800862E872E882EA72E79080A128A1516266F
:100D18000A128A1176080A128A1516260A128A11E8
:100D280075080A128A1516260A128A1178080A12F4
:100D38008A1516260A128A11FF30FA070318FB0AC9
:100D4800FF30FB07812EFF300A128A1516260A1279
:100D58008A11FF300A128A1516260A128A11FF30E4
:100D68000A128A1516260A128A11FF300A128A15E3
:100D780016260A128A1108000A128A155D250A1217
:100D88008A11003A031DC92ECA2EDF2E00300A121E
:100D98008A15E7250A128A11FF3083120313B5005A
:100DA800FF30B6001F30B700FF300A128A15BD2782
:100DB8000A128A111D2F8312031354080A128A1566
:100DC80041250A128A110A128A15E7250A128A1180
:100DD800831203135308083E0A128A1541250A1282
:100DE8008A1183120313B9005308103E0A128A1598
:100DF80041250A128A1183120313BA005308183EB8
:100E08000A128A1541250A128A1183120313BB009C
:100E18003908B5003A08B6003B08B70053080A126B
:100E28008A1541250A128A110A128A15BD270A1243
:100E38008A1108000A128A15F5230A128A11B53098
:100E48000A128A1540240A128A1101300A128A15D8
:100E580095250A128A1183120313AB00AC012B08E3
:100E680083160313A600831203132C088316031397
:100E7800A70001300A128A1595250A128A118312D1
:100E88000313AB00AC01AB0EAC0EF030AC052B0875
:100E98000F39AC04F030AB052B0883160313A607F3
:100EA8000318A70A831203132C0883160313A70732
:100EB80000300A128A1595250A128A11103A031D64
:100EC800662F672F6D2FFF3083160313A600FF30A0
:100ED800A70008000A128A15F5230A128A11203081
:100EE8000A128A1540240A128A1104300A128A1535
:100EF80040240A128A1121300A128A1540240A1243
:100F08008A1101300A128A1595250A128A1183124C
:100F18000313AB00AC012B0883160313A80083123C
:100F280003132C0883160313A90000300A128A152C
:100F380095250A128A1183120313AB00AC01AB0E7C
:100F4800AC0EF030AC052B080F39AC04F030AB0513
:100F58002B0883160313A8070318A90A831203137F
:100F68002C0883160313A907080083120313AF0183
:100F7800B00129082A040319C22FC32FFA2FAE0182
:100F8800AE0AD12F01300310A90DAA0DFF3E031D93
:100F9800C72F0130AD002D08AE07AA1FD42FD52FBB
:100FA800C62F01300310AF0DB00DFF3E031DD62F25
:100FB8002A082C02031DE22F29082B02031CE52F07
:100FC800E62FED2F2908AB022A08031CAC03AC025C
:100FD8002F1401300310AA0CA90CFF3E031DEE2F9D
:100FE8000130AE02031DF92FFA2FD52F3008AA00C1
:080FF8002F08A9000800613474
:1017C2008316031387120800831203138C1DEA2B5E
:1017D200EB2BE52B8C11080064008001840A0406BF
:1017E200031900340406EE2B8316031391140A1214
:1017F2008A15E5230A128A150800831603131115A8
:101802000A128A15E5230A128A15080083160313A1
:1018120011140A128A15E5230A128A150800831682
:1018220003178C13831203130D12831603130D1661
:1018320008003D30831203138100831603138112C3
:101842008111073081048B160800831603132708C1
:1018520083120313AA0083160313260883120313A9
:10186200A900080083160313290883120313AA0090
:1018720083160313280883120313A9000800831296
:101882000313A900290893000A128A15E5230A12F4
:101892008A15831603131108080083160313071110
:1018A200831603178801831203131708F0390C38C3
:1018B20097003F3097056308950008007D08831262
:1018C20003138F0055088E009010CF30900510132F
:1018D200831603130C148312031310140800A73089
:1018E200831603139200FC30831203139205873090
:1018F2009205831603138C14831203138C10121592
:10190200080083120313A90083120C1A892C8A2C53
:10191200902C83160313981C8F2C902C852C8312E9
:101922002908990008007E088A007F0882000A12AE
:101932008A1594240A128A158000840A04087D06F6
:1019420003190034FF0A0319FE0A982C03340034E9
:101952000A3400340234003401340034A734A7348A
:101962000134A73402340134A934FF34FF34FF3484
:101972001F34FF34FF34FF34FF34FF34FF34FF34AD
:10198200FF34FF34FF34643400348434033490343D
:101992000134A834613401340034F300F201731CC1
:1019A200D32CD42CD82C7008F1007108F207031044
:1019B200F00D0310F30C7308031DE02CE12CD02C66
:1019C20072080800F000831603178C130C1183129F
:1019D20003178E018F0170088D00831603178C1870
:1019E200F32CF42CF52C0C14831203170C080800AA
:1019F20083120313AC00AB012C1C002D012D052D0D
:101A02002908AA002A08AB070310A90D0310AC0C81
:101A12002C08031D0D2D0E2DFD2C2B0808008316FE
:101A2200031387150716F030831203139405F03061
:101A320094058316031788013F308316031393001E
:101A4200831203138C11831603138C1508000130C3
:101A520083160313850083160317081488140815C8
:101A6200831203131F083F3980389F00C3309F053C
:101A72001F14831603139F179F121F120C170800BF
:101A820083120313A900831603178C130C118312FC
:101A920003178E018F018312031329088312031780
:101AA2008D00831603178C18572D582D592D0C14A1
:101AB200831203170C08080000300A128A15412508
:101AC2000A128A1583120313AA002A0803196A2D1F
:101AD2006B2D752D2A0803196F2D702D752D2A086F
:101AE200031D742D752D772D0030782D01300800DF
:101AF2008316031318118316031787118316031312
:101B02009A01203099001812181383120313181324
:101B1200831603130C168C1683120313981783165D
:101B2200031398129816080083120313A900831650
:101B3200031391150A128A15E5230A128A158312D4
:101B420003131308AA0029080319A82DA92DAD2DE6
:101B5200831603139112B02D8316031391161116D7
:101B62000A128A15E5230A128A15831203132A0818
:101B72000800FB006430F0000030F1007B08F9003F
:101B8200FA017908F2007A08F3000A128A11922502
:101B92000A128A15700883120313E3005208F00038
:101BA20063080A128A15CE240A128A1583120313B5
:101BB20095007B08F10054080A128A11F9250A12CD
:101BC2008A157B0883120313E500080083120313AE
:101BD200B4006430A9000030AA003408B200B30196
:101BE2003208AB003308AC000A128A1129250A1206
:101BF2008A15831203132908E3005208A900630817
:101C02000A128A15F9240A128A15831203139500FF
:101C12003408AA0054080A128A11D8230A128A1513
:101C2200831203133408E5000800F200F3010830C0
:101C3200F4007208F0007408FF3E013E222E0310E9
:101C4200F00CFF3E031D202E7018282E2C2E83121E
:101C5200031307142F2E8312031307108716050E82
:101C6200F000700C0139F1007108F30487120230A0
:101C72007402031C3D2E3E2E422E7308F0007007A4
:101C8200F3000130F4027408031D482E492E1A2E67
:101C9200080083120313AB00AC010830AD002B081F
:101CA200A9002D08FF3E013E582E0310A90CFF3E4D
:101CB200031D562E29185E2E622E8312031307145B
:101CC200652E8312031307108716050EA900290C2F
:101CD2000139AA002A08AC04871202302D02031C23
:101CE200732E742E782E2C08A9002907AC0001301F
:101CF200AD022D08031D7E2E7F2E502E08000830C7
:101D0200831603138F000A128A1579250A128A157F
:101D12000A128A1528250A128A150A128A151A2405
:101D22000A128A150A128A155F240A128A150A12E1
:101D32008A1570240A128A150A128A154E240A126A
:101D42008A150A128A1510250A128A150A128A158C
:101D5200E1230A128A150A128A1507240A128A1521
:101D62000A128A1510240A128A1583160313860191
:101D72008B170B170800831203133108320403195F
:101D8200C32EC42EF32EB601B60AD22E0130031092
:101D9200B10DB20DFF3E031DC82E0130B50035084E
:101DA200B607B21FD52ED62EC72E32083402031D17
:101DB200DC2E31083302031CDF2EE02EE62E310822
:101DC200B3023208031CB403B40201300310B20C94
:101DD200B10CFF3E031DE72E0130B602031DF22EA9
:101DE200F32ED62E3408B2003308B1000800831651
:101DF20003132E082F040319FF2E002F362FAE01D6
:101E0200AF012308BB002208BA002508BD00240840
:101E1200BC000A128A1526240A128A158312031399
:101E22002A0883160313BF0083120313290883169B
:101E32000313BE000A128A1533240A128A1583126A
:101E420003132A0883160313C100831203132908FC
:101E520083160313C0000A128A111E270A128A155A
:101E62000A128A116E270A128A150800FC008312D0
:101E720003132008F5002108F6002208F7007C0869
:101E82000A128A115E260A128A157C08831203132B
:101E9200D6002008D7002108D8002208D900560809
:101EA200F10053080A128A11F9250A128A158312BF
:101EB20003135708F1005308013E0A128A11F9254B
:101EC2000A128A15831203135808F1005308023EBE
:101ED2000A128A11F9250A128A1583120313590864
:101EE200F1005308033E0A128A11F9250A128A15D3
:101EF2000800831603132108803AFF0081307F0215
:101F0200031D852F903020020318882F892F8E2FD2
:101F120083120313AB01AB0AA62F83160313210806
:101F2200803AFF0083307F02031D992F8430200204
:101F320003189C2F9D2FA22F023083120313AB0094
:101F4200A62F033083120313AB005D08803AA90069
:101F520080302902031DAF2F2B085C020318B22F19
:101F6200B32FBC2F831203132B08A900AA0129083F
:101F7200DC002A08DD00080083120313B8003508CC
:101F8200AE003608AF003708B00038080A128A11CE
:101F9200BD240A128A15831203133808D6003508A5
:101FA200D7003608D8003708D9005608AA005308C7
:101FB2000A128A11D8230A128A15831203135708A8
:101FC200AA005308013E0A128A11D8230A128A155E
:101FD200831203135808AA005308023E0A128A11F8
:101FE200D8230A128A15831203135908AA00530828
:0E1FF200033E0A128A11D8230A128A1508002B
:08400000FF3FFF3FFF3FFF3FC0
:04400E00E220FF3E6F
:00000001FF
