:060000000A128A11122809
:10000800FE00030E83120313A8000408A9000A08BF
:10001800AA007F08AB000A128A114A280A128A111C
:1000280015288313CD30FD000C30FE00E030FF00B2
:10003800C53084000A128A157D250A128A11643097
:10004800FD000D30FE00A130FF004F3084000A1281
:100058008A157D250A128A110A128A11FF270A12A7
:100068008A11FD00A0308400BA300A128A15D824FB
:100078000A128A113A3084004F300A128A15D8249D
:100088000A128A1183010A128A151D2F0B1D4D2889
:100098004E28AA283D3081003B08803AA3008316E9
:1000A80003134608803A831203132302031D6228B0
:1000B800831603134508831203133A02031C6528A9
:1000C8006628A02883120313BA01BB0101308316E6
:1000D8000313AA070318AB0A0030AB0783120313F4
:1000E800410883160313B1008312031340088316D3
:1000F8000313B00083120313C001C1018316031355
:100108002B08803AFF0080307F02031D8D280530C0
:100118002A02031C90289128A8280130831203136F
:10012800BE000030BF000230D3000030D400831678
:100138000313AA01AB01A828013083120313BA07DD
:100148000318BB0A0030BB070B111F2A0C1CAD2873
:10015800AE2816293D08803AA3005008803A2302A9
:10016800031DB8284F083C02031CBB28BC28D12813
:1001780083120313BC01BD015408803AFF0080308C
:100188007F02031DC92801305302031CCC28CD2847
:100198000D29831203139F140D29013083120313B1
:1001A800BC070318BD0A0030BD074F08FF3EA30077
:1001B80050080318013EFF3EA4003D082406031D15
:1001C800E7283C0823060319EA28EB280C295408D9
:1001D800803AFF0080307F02031DF428013053026B
:1001E800031CF728F8280D29831203134F08FE3E35
:1001F800A30050080318013EFF3EA4003D08240652
:10020800031D08293C082306031D0B290C290D2969
:100218009F14831203139F147D088F005F088E00BC
:100228000C101F2A8C1C19291A292129831603133B
:100238008701831203138C101F2A0C1F24292529D8
:1002480089290C131E08A300A401A30EA40EF030E4
:10025800A40523080F39A404F030A305831603135B
:100268001E08831203132307A5000030031801306A
:100278002407A6005508A7002707A03E84002508E4
:1002880083138000840A260880005408803AFF00FF
:1002980080307F02031D522901305302031C552967
:1002A80056297B29831203133C083D04031D5D294D
:1002B8005E296929FF30D3070318D40AFF30D40711
:1002C8000130D5000030D6007F2902303C063D04BD
:1002D800031D6F2970297B29FF30D3070318D40A1F
:1002E800FF30D4070230D5000030D6007F298312B2
:1002F8000313D501D6015508A300A30DA30D1F08AC
:100308002306C33923069F001F2A0D1E8C298D2919
:1003180093290D120130C8000030C9001F2A0C1E95
:100328009629972999290C121F2A8C1E9C299D29E8
:10033800192A8C124708803AFF0080307F02031D7B
:10034800A72901304602031CAA29AB29CC29FF3072
:1003580083120313C6070318C70AFF30C7074608E6
:10036800603E84001A088313800046084704031D72
:10037800BE29BF291F2A6208A0006108A1006008E1
:10038800A20063080A128A116D270A128A111F2A0D
:10039800831203134508803AFF0080307F02031D53
:1003A800D72901304402031CDA29DB29FE298312EC
:1003B8000313C401C5011A080A128A158D260A12E8
:1003C8008A111F2A0130C2000030C3001F2A4230A0
:1003D80099001F2A0130C4000030C5001F2A0430CC
:1003E800C6000030C7001F2AD701D8011F2A453090
:1003F80099001F2A831203131A08A300A4012408D2
:10040800003A0319082AFB292308613A0319E62947
:10041800033A0319EB29013A0319EE29073A03199C
:10042800F329013A0319F829FB298C1D1C2A1D2AD6
:100438001F2A8C111F2A831203132B08FF002A0876
:100448008A0029088400280E8300FE0E7E0E09000B
:1004580083160313BF00BA30C100122B253044069F
:100468000319372A382A3F2A44080A128A156725A9
:100478000A128A11122BBE01512A410884008313E3
:100488000008C4000230BB003B08C10744080A1238
:100498008A1567250A128A11122B0130BF07FF300F
:1004A8003F0784000A128A1500200A128A11C40024
:1004B800BB00BC013C08003A0319632A4A2A3B08DE
:1004C800003A0319242B633A0319412A073A0319FE
:1004D800712A0D3A0319712A4A2A410884008313A4
:1004E8000008C200840A0008C3000230BB003B08B1
:1004F800C107C31F802A812A8A2A0330BB003B0810
:10050800BE04C209C309C20A0319C30AC401C40A42
:100518004408BB003B07013E84000A128A150020EC
:100528000A128A11BC000A128A1500200A128A11BE
:10053800BD003D084302031DA32A3C0842020318DC
:10054800A62AA72AA82AB22A0130BB003B08C4075A
:1005580005304406031DB12AB22A8C2A3E08033905
:100568000319B72AB82ABE2A2D300A128A15672518
:100578000A128A11831603134408C000072B0A3095
:1005880083120313B4000030B50083160313400828
:10059800BB003B07013E84000A128A1500200A129C
:1005A8008A1183120313AC000A128A1500200A125A
:1005B8008A11AD0083160313430883120313AF0097
:1005C80083160313420883120313AE000A128A111A
:1005D8005A260A128A11831203132D08B7002C0811
:1005E800B6000A128A15C4270A128A118312031345
:1005F8003408303E83160313C40044080A128A15CF
:1006080067250A128A11FF3083160313BB003B08C3
:10061800C007400A031D112B122BC32A0130831671
:100628000313BF07FF303F0784000A128A15002012
:100638000A128A11C4004408031D232B242B322AD2
:10064800080083120313B000831603178C130C15CC
:10065800831203178F0183120313300883120317C1
:100668008D00831603170C183A2B3B2B972B8312FC
:100678000313B101B201AE01AF01712B8B132D0829
:10068800831203178C005530831603178D00AA3088
:100698008D008C148B17831203134808490403191F
:1006A800562B572B4F2BC801C90130080A128A153F
:1006B80014260A128A11831203132D06031D652BB3
:1006C800662B6B2B0130AE000030AF00712B013070
:1006D800B1070318B20A0030B2073208803AFF00A7
:1006E80080307F02031D7A2B0A30310203187D2BDC
:1006F8007E2B862B831203132E082F040319852BB8
:10070800862B422B831203133208803AFF00803075
:100718007F02031D912B0A303102031C942B952B69
:10072800962B972B972B080083120313B4003308DA
:100738001F39E03EB50000300A128A1552270A1206
:100748008A1100300A128A1552270A128A110030BB
:100758000A128A1552270A128A1100300A128A15BB
:1007680052270A128A11831203135208B70051083C
:10077800B600360837040319C22BC32BC42BEB2B46
:1007880035080A128A1552270A128A11831203138E
:1007980032080A128A1552270A128A118312031381
:1007A80031080A128A1552270A128A118312031372
:1007B80034080A128A1552270A128A11FF30831246
:1007C8000313B6070318B70AFF30B707BD2BFF306E
:1007D8000A128A1552270A128A11FF300A128A153C
:1007E80052270A128A11FF300A128A1552270A1252
:1007F8008A11FF300A128A1552270A128A11080034
:1008080083120313B201AD1F0A2C0B2C122CAC0956
:10081800AD09AC0A0319AD0AB201B20AAF1F152C13
:10082800162C1F2CAE09AF09AE0A0319AF0A013006
:10083800B0003008B206B301B4012C082D04031926
:10084800262C272C5E2CB101B10A352C013003105F
:10085800AC0DAD0DFF3E031D2B2C0130B000300850
:10086800B107AD1F382C392C2A2C01300310B30DD9
:10087800B40DFF3E031D3A2C2D082F02031D462CF4
:100888002C082E02031C492C4A2C512C2C08AE0291
:100898002D08031CAF03AF02331401300310AD0C55
:1008A800AC0CFF3E031D522C0130B102031D5D2C20
:1008B8005E2C392C32080319622C632C682CB3097E
:1008C800B409B30A0319B40A3408AD003308AC00FC
:1008D8000800F601F11F712C722C792CF009F1092E
:1008E800F00A0319F10AF601F60AF31F7C2C7D2C95
:1008F800862CF209F309F20A0319F30A0130F4000D
:100908007408F606F701F8017008710403198D2CB4
:100918008E2CC52CF501F50A9C2C01300310F00D26
:10092800F10DFF3E031D922C0130F4007408F50709
:10093800F11F9F2CA02C912C01300310F70DF80DFE
:10094800FF3E031DA12C71087302031DAD2C700816
:100958007202031CB02CB12CB82C7008F20271087A
:10096800031CF303F302771401300310F10CF00CAD
:10097800FF3E031DB92C0130F502031DC42CC52C04
:10098800A02C76080319C92CCA2CCF2CF709F80912
:10099800F70A0319F80A7808F1007708F000080048
:1009A800F400831603178C130C15831203178F0199
:1009B80074088D00831603170C18E32CE42C382DCB
:1009C800F501F601F201F301162D8B13710883125C
:1009D80003178C005530831603178D00AA308D003D
:1009E8008C148B1783120313480849040319FD2C30
:1009F800FE2CF62CC801C90174080A128A15B625FE
:100A08000A128A117106031D0A2D0B2D102D0130B3
:100A1800F2000030F300162D0130F5070318F60A2E
:100A28000030F6077608803AFF0080307F02031D09
:100A38001F2D0A3075020318222D232D292D720827
:100A480073040319282D292DE92C7608803AFF0014
:100A580080307F02031D322D0A307502031C352DAC
:100A6800362D372D382D382D08000A128A153026D4
:100A78000A128A11003A031D422D432D582D0030C9
:100A88000A128A15BA260A128A11FF30831603132E
:100A9800BA00FF30BB001F30BC00FF300A128A11B9
:100AA800FF250A128A119C2D831203135E080A126D
:100AB8008A1514260A128A110A128A15BA260A12E7
:100AC8008A11831203135D08083E0A128A15142638
:100AD8000A128A1183160313BD00831203135D08DB
:100AE800103E0A128A1514260A128A118316031355
:100AF800BE00831203135D08183E0A128A151426D5
:100B08000A128A1183160313BF003D08BA003E0873
:100B1800BB003F08BC00831203135D080A128A1544
:100B280014260A128A110A128A11FF250A128A113A
:100B38000800F80077081F39E03EF90000300A1273
:100B48008A15E9260A128A1100300A128A15E9263E
:100B58000A128A1100300A128A15E9260A128A1125
:100B680000300A128A15E9260A128A118312031321
:100B78005208FB005108FA007A087B040319C52DB6
:100B8800C62DC72DE62D79080A128A15E9260A12FC
:100B98008A1176080A128A15E9260A128A11750836
:100BA8000A128A15E9260A128A1178080A128A1581
:100BB800E9260A128A11FF30FA070318FB0AFF30E8
:100BC800FB07C02DFF300A128A15E9260A128A117E
:100BD800FF300A128A15E9260A128A11FF300A1212
:100BE8008A15E9260A128A11FF300A128A15E9269F
:100BF8000A128A11080083120313B800831603131C
:100C08003A0883120313B100831603133B088312B7
:100C18000313B200831603133C0883120313B300B3
:100C280038080A128A1198230A128A1183120313A8
:100C38003808E000831603133A0883120313E1000F
:100C4800831603133B0883120313E200831603136E
:100C58003C0883120313E3006008AD005D080A1224
:100C68008A1125230A128A11831203136108AD0021
:100C78005D08013E0A128A1125230A128A1183127D
:100C880003136208AD005D08023E0A128A1125238B
:100C98000A128A11831203136308AD005D08033E2C
:100CA8000A128A1125230A128A11080083120313D3
:100CB800B201B3012C082D040319632E642E9B2E58
:100CC800B101B10A722E01300310AC0DAD0DFF3E1B
:100CD800031D682E0130B0003008B107AD1F752E16
:100CE800762E672E01300310B20DB30DFF3E031DA3
:100CF800772E2D082F02031D832E2C082E02031C8D
:100D0800862E872E8E2E2C08AE022D08031CAF03CC
:100D1800AF02321401300310AD0CAC0CFF3E031DC2
:100D28008F2E0130B102031D9A2E9B2E762E33088A
:100D3800AD003208AC0008000A128A15E8240A122D
:100D48008A1121300A128A11F1270A128A110430F5
:100D58000A128A11F1270A128A1101300A128A1519
:100D680068260A128A1183120313AE00AF012E08F7
:100D780083160313A800831203132F088316031383
:100D8800A90001300A128A1568260A128A118312EC
:100D98000313AE00AF01AE0EAF0EF030AF052E0854
:100DA8000F39AF04F030AE052E0883160313A807D9
:100DB8000318A90A831203132F0883160313A9071C
:100DC80008000A128A15E8240A128A115A300A12EF
:100DD8008A11F1270A128A11B5300A128A11F127ED
:100DE8000A128A1101300A128A1568260A128A1113
:100DF80083120313AE00AF012E0883160313A60057
:100E0800831203132F0883160313A70001300A1255
:100E18008A1568260A128A1183120313AE00AF01DD
:100E2800AE0EAF0EF030AF052E080F39AF04F0301C
:100E3800AE052E0883160313A6070318A70A831204
:100E480003132F0883160313A70708008316031339
:100E58002108803AFF0081307F02031D352F903032
:100E680020020318382F392F3E2F83120313AE01A7
:100E7800AE0A562F831603132108803AFF008330E9
:100E88007F02031D492F8430200203184C2F4D2F59
:100E9800522F023083120313AE00562F03308312F1
:100EA8000313AE004108803AAC0080302C02031DC9
:100EB8005F2F2E0840020318622F632F6C2F8312B6
:100EC80003132E08AC00AD012C08C0002D08C1008A
:100ED8000800FC00831203132008F5002108F6001F
:100EE8002208F7007C080A128A119D250A128A1125
:100EF8007C0883120313E0002008E1002108E200C7
:100F08002208E3006008F1005D080A128A11D4245F
:100F18000A128A11831203136108F1005D08013E69
:100F28000A128A11D4240A128A118312031362083E
:100F3800F1005D08023E0A128A11D4240A128A11AD
:100F4800831203136308F1005D08033E0A128A1135
:100F5800D4240A128A110800831203133E083F049E
:100F68000319B72FB82FF02FBE01BF018316031343
:100F78002308B3002208B2002508B5002408B400ED
:100F88000A128A1519250A128A11831203132D08C9
:100F980083160313B700831203132C088316031355
:100FA800B6000A128A1526250A128A11831203131B
:100FB8002D0883160313B900831203132C08831614
:100FC8000313B8000A128A11E5260A128A110A12B6
:100FD8008A11A0260A128A11080083120313AC0092
:100FE8002C0893000A128A15D0240A128A11831633
:100FF800031311080800613408308A000408840AC1
:1010080082070034013400340A3400346434003474
:10101800E83403341034273441342534633420341D
:0E1028003D342034253464340D340A34003451
:101998008316031387120800831203138C1DD52C9A
:1019A800D62CD02C8C11080064008001840A04060F
:1019B800031900340406D92C643400348434033405
:1019C80090340134A83461348316031391140A1235
:1019D8008A15D0240A128A150800831603131115D4
:1019E8000A128A15D0240A128A15080083160313CE
:1019F80011140A128A15D0240A128A1508008316AF
:101A080003178C13831203130D12831603130D1679
:101A180008003D30831203138100831603138112DB
:101A28008111073081048B160800831603132708D9
:101A380083120313AD0083160313260883120313BE
:101A4800AC00080083160313290883120313AD00A2
:101A580083160313280883120313AC0008008316A7
:101A6800031307118316031788018312031317083A
:101A7800F0390C3897003F3097054B08950008005F
:101A88007D08831203138F005F088E009010CF30FB
:101A980090051013831603130C14831203131014E8
:101AA8000800A730831603139200FC308312031337
:101AB800920587309205831603138C14831203133F
:101AC8008C101215080083120313AC0083120C1A31
:101AD8006E2D6F2D752D83160313981C742D752D7F
:101AE8006A2D83122C08990008007E088A007F0856
:101AF80082000A128A1579250A128A158000840A3A
:101B080004087D0603190034FF0A0319FE0A7D2D17
:101B1800F300F201731C912D922D962D7008F1009F
:101B28007108F2070310F00D0310F30C7308031D7E
:101B38009E2D9F2D8E2D72080800033400340A3420
:101B48000034023400340134003401340034A73442
:101B5800A7340134A73402340134A934FF34FF34E4
:101B6800FF341F34F000831603178C130C118312F3
:101B780003178E018F0170088D00831603178C18C8
:101B8800C62DC72DC82D0C14831203170C08080086
:101B980083120313AF00AE012F1CD32DD42DD82DE3
:101BA8002C08AD002D08AE070310AC0D0310AF0CC8
:101BB8002F08031DE02DE12DD02D2E0808008316D7
:101BC800031387150716F030831203139405F030BA
:101BD80094058316031788013F3083160313930077
:101BE800831203138C11831603138C15080001301C
:101BF8008316031385008316031708148814081521
:101C0800831203131F083F3980389F00C3309F0594
:101C18001F14831603139F179F121F120C17080017
:101C280083120313AC00831603178C130C11831251
:101C380003178E018F01831203132C0883120317D5
:101C48008D00831603178C182A2E2B2E2C2E0C147D
:101C5800831203170C08080000300A128A1514268C
:101C68000A128A1583120313AD002D0803193D2E9D
:101C78003E2E482E2D080319422E432E482E2D089D
:101C8800031D472E482E4A2E00304B2E01300800E7
:101C9800831603131811831603178711831603136A
:101CA8009A0120309900181218138312031318137D
:101CB800831603130C168C168312031398178316B6
:101CC800031398129816080083120313AC008316A6
:101CD800031391150A128A15D0240A128A15831241
:101CE80003131308AD002C0803197B2E7C2E802EBD
:101CF800831603139112832E83160313911611165C
:101D08000A128A15D0240A128A15831203132D0881
:101D18000800FB006430F0000030F1007B08F90097
:101D2800FA017908F2007A08F3000A128A116D2480
:101D38000A128A15700883120313CB005C08F0009E
:101D48004B080A128A158C250A128A158312031366
:101D580095007B08F1005E080A128A11D4240A1241
:101D68008A157B0883120313CD000800831203131E
:101D7800B7006430AC000030AD003708B500B601DC
:101D88003508AE003608AF000A128A1104240A1278
:101D98008A15831203132C08CB005C08AC004B088F
:101DA8000A128A15CC250A128A1583120313950084
:101DB8003708AD005E080A128A1125230A128A150F
:101DC800831203133708CD000800F200F30108302E
:101DD800F4007208F0007408FF3E013EF52E03106F
:101DE800F00CFF3E031DF32E7018FB2EFF2E8312FE
:101DF80003130714022F8312031307108716050E07
:101E0800F000700C0139F1007108F30487120230F8
:101E18007402031C102F112F152F7308F000700780
:101E2800F3000130F4027408031D1B2F1C2FED2E44
:101E380008000A128A1588270A128A150A128A11B6
:101E480039250A128A15422F4208430403192D2FF7
:101E58002E2F382FB03083160313BA000B300A1216
:101E68008A112C220A128A150A128A112A270A12A2
:101E78008A150A128A11B0270A128A1583120313C7
:101E880057085804031D492F4A2F282F0A128A156C
:101E9800F1240A128A150A128A11122883120313CE
:101EA800AE00AF010830B0002E08AC003008FF3E8D
:101EB800013E602F0310AC0CFF3E031D5E2F2C1853
:101EC800662F6A2F8312031307146D2F83120313CF
:101ED80007108716050EAC002C0C0139AD002D0833
:101EE800AF04871202303002031C7B2F7C2F802F17
:101EF8002F08AC002C07AF000130B0023008031DDA
:101F0800862F872F582F08000830831603138F0059
:101F18000A128A154C260A128A150A128A15FB25F6
:101F28000A128A150A128A150D250A128A150A122A
:101F38008A1544250A128A150A128A1555250A1285
:101F48008A150A128A1533250A128A150A128A1561
:101F5800E3250A128A150A128A15CC240A128A1550
:101F68000A128A15FA240A128A150A128A150325F2
:101F78000A128A158316031386018B170B1708009C
:101F880083120313340835040319CB2FCC2FFB2FEE
:101F9800B901B90ADA2F01300310B40DB50DFF3EAF
:101FA800031DD02F0130B8003808B907B51FDD2F41
:101FB800DE2FCF2F35083702031DE42F34083602F1
:101FC800031CE72FE82FEE2F3408B6023508031C50
:101FD800B703B70201300310B50CB40CFF3E031D64
:101FE800EF2F0130B902031DFA2FFB2FDE2F370820
:081FF800B5003608B400080032
:08400000FF3FFF3FFF3FFF3FC0
:04400E00E220FF3E6F
:00000001FF
