:060000000A128A11122809
:10000800FE00030E83120313BB000408BC000A0899
:10001800BD007F08BE000A128A1152280A128A11EE
:10002800152883179A30FD000830FE004630FF007F
:10003800903084000A128A15D3200A128A11831379
:10004800F030FD000830FE00AC30FF00DF308400E7
:100058000A128A15D3200A128A115D30FD00083071
:10006800FE005C30FF00503084000A128A15D3204D
:100078000A128A11CB308400DF300A128A15222036
:100088000A128A113F30840050300A128A15222041
:100098000A128A1183010A128A11AA2E0B1D5528E9
:1000A8005628B2283D308100831603135808803A39
:1000B80083120313B900831603136008803A83126E
:1000C80003133902031D6C28831603135F085702B4
:1000D800031C6F287028A82883160313D701D8019A
:1000E8000130D5070318D60A0030D6078312031348
:1000F80044088316031791008312031343088316D9
:100108000317900083120313C301C401831603135A
:100118005608803AFF0080307F02031D952805307D
:100128005502031C98289928B0280130831203131C
:10013800C1000030C2000230D2000030D300831664
:100148000313D501D601B028013083160313D7074E
:100158000318D80A0030D8070B11252A0C1CB5281B
:10016800B6281E294008803AB9005108803A390259
:10017800031DC02850083F02031CC328C428D928DF
:1001880083120313BF01C0015308803AFF00803077
:100198007F02031DD12801305202031CD428D52820
:1001A8001529831203139F14152901308312031391
:1001B800BF070318C00A0030C0075008FF3EB90047
:1001C80051080318013EFF3EBA0040083A06031DD5
:1001D800EF283F0839060319F228F3281429530891
:1001E800803AFF0080307F02031DFC280130520254
:1001F800031CFF2800291529831203135008FE3E0B
:10020800B90051080318013EFF3EBA0040083A06FB
:10021800031D10293F083906031D13291429152920
:100228009F14831203139F145C088F005B088E00D1
:100238000C10252A8C1C212922292929831603130D
:100248008701831203138C10252A0C1F2C292D29B2
:100258007D290C135408B9003907CB3E8400831656
:1002680003131E0883138000840A831203131E08D5
:1002780080005308803AFF0080307F02031D462922
:1002880001305202031C49294A296F29831203139A
:100298003F084004031D512952295D29FF30D20728
:1002A8000318D30AFF30D3070130D4000030D5003B
:1002B800732902303F064004031D632964296F290E
:1002C800FF30D2070318D30AFF30D3070230D40017
:1002D8000030D500732983120313D401D5015408C3
:1002E800B900B90DB90D1F083906C33939069F0081
:1002F800252A0D1E8029812987290D120130C90060
:100308000030CA00252A0C1E8A298B298D290C1237
:10031800252A8C1E902991291F2A8C124808803A78
:10032800FF0080307F02031D9B2901304702031C18
:100338009E299F29CE29FF3083120313C70703186C
:10034800C80AFF30C8074708EC3E84001A08831320
:10035800800047084804031DB229B329252A8316BB
:1003680003136E0883120313B500831603136D0875
:1003780083120313B600831603136C088312031346
:10038800B700831603136F080A128A15DE250A12AE
:100398008A11252A831203134608803AFF00803009
:1003A8007F02031DD92901304502031CDC29DD2900
:1003B800042A83120313C501C6011A080A128A15F2
:1003C800C4210A128A11252A013083160313DB007F
:1003D8000030DC00252A42309900252A0130C5006A
:1003E8000030C600252A0430C7000030C800252A7E
:1003F80083160313E901EA01252A45309900252AC5
:10040800831203131A08B900BA013A08003A03190B
:100418000E2A012A3908613A0319E829033A03190F
:10042800EF29013A0319F229073A0319F729013A82
:100438000319FC29012A8C1D222A232A252A8C111A
:10044800252A831203133E08FF003D088A003C0852
:1004580084003B0E8300FE0E7E0E090083160317F0
:100468009A008316031348081F39E03E83160317C2
:100478009B007E3083160313AE008330AF000A1250
:100488008A1194240A128A1100300A128A15D62277
:100498000A128A1100300A128A15D6220A128A1103
:1004A80000300A128A15D6220A128A1100300A125E
:1004B8008A15D6220A128A11831603136208831634
:1004C80003179D00831603136108831603179C0006
:1004D8001C081D040319712A722A732AB32AFB30D7
:1004E80083160313AE008330AF00831603171D086D
:1004F80083160313B100831603171C08831603130E
:10050800B0000A128A1194240A128A11831603175A
:100518001B080A128A15D6220A128A118316031397
:1005280047080A128A15D6220A128A11831603135B
:1005380046080A128A15D6220A128A118316031748
:100548001A080A128A15D6220A128A11FF3083164F
:1005580003179C0703189D0AFF309D076C2A9C30DF
:1005680083160313AE008330AF000A128A11942455
:100578000A128A11FF300A128A15D6220A128A1123
:10058800FF300A128A15D6220A128A11FF300A127F
:100598008A15D6220A128A11FF300A128A15D62223
:1005A8000A128A11B83083160313AE008330AF00E5
:1005B8000A128A1194240A128A1108008316031356
:1005C8001811831603178711831603139A01203015
:1005D80099001812181383120313181383160313A0
:1005E8000C168C168312031398178316031398128C
:0405F8009816080049
:10060000FF1B0A2B83137F1883170008840A031922
:10061000FF0A08007F087F398A000408840A03194A
:10062000FF0A8200013400340A3400346434003498
:10063000E834033410342734523475346934643464
:100640006F3420343D342034633461347434653481
:1006500067346F347234693461342034253464343F
:100660002C342034683475346D346534643461342A
:10067000643420343D34203425346434203425342B
:1006800025342C342034743465346D34703465343E
:1006900072346134743475347234613420343D34CE
:1006A00020342534643420342534633420344334F6
:1006B0002C34203443344F34323420343D3420340D
:1006C000253464342034703470346D342C34203448
:1006D0004C3475346D3469346E346F34733469342A
:1006E00064346134643420343D342034253464343B
:1006F00020346C3478340D340A3400344534733487
:1007000063347234693462346F34203465346E3447
:1007100020345334503449342034633461346434E5
:1007200065346E346134203469346E346934633432
:10073000693461346C340034453473346334723456
:10074000693462346F34203465346E342034533469
:1007500050344934203463346134643465346E3445
:1007600061342034663469346E3461346C3400345E
:1007700045347834693474346F342034533450340D
:100780004934203463346134643465346E34613404
:100790002034663469346E3461346C340034493446
:1007A0006E346934203475346134723474342034D6
:1007B0006134643463342034743469346D346534A2
:1007C000723473340D340A34003447347534613470
:1007D000723464346134723420346F34703463346E
:1007E00069346F346E3420346434653420346C34AE
:1007F000653464340034453473346334723469349A
:1008000062346F34203463346F346C346F34723438
:1008100020346C346534643420342534643400343A
:1008200049346E3469346334693461347234203449
:1008300063346F347334613473342034533450343C
:10084000493420346134003449346E3469346334BB
:1008500069346F3420347434653472346D346934DF
:100860006E34613464346F340D340A3400344934E6
:100870006E34693479346F342034743465347234AE
:100880006D3469346E34613464346F340D340A3439
:100890000034503472347534653462346F3420342B
:1008A0006D3465346D346F347234693461340034BE
:1008B00049346E34693420346D3465346D346F34AA
:1008C0007234693461340D340A34003449346E347E
:1008D0006934203463346334703431340D340A3471
:1008E000003449346E34693420346934323463342A
:1008F0000D340A34003449346E346934203473348E
:10090000703469340D340A34003444346534663448
:10091000613475346C347434003443347534733456
:1009200074346F346D340034B03083160313C20056
:100930008F2D2530450603199E2C9F2CA62C45088B
:100940000A128A150D210A128A118F2DC001B82CA6
:100950004208840083130008C5000230BC003C0834
:10096000C20745080A128A150D210A128A118F2D15
:100970002F08BD002E08BC00AE0A0319AF0A3D08BF
:1009800083120313FF00831603133C0884008312B1
:1009900003130A128A1100230A128A118316031301
:1009A000C500BE00BF013F08003A0319D82CB12C86
:1009B0003E08003A0319AF2D633A0319A82C073AF1
:1009C0000319E62C0D3A0319E62CB12C42088400D9
:1009D00083130008C300840A0008C4000230BC006E
:1009E0003C08C207C41FF52CF62CFF2C0330BC00BA
:1009F0003C08C004C309C409C30A0319C40AC501D9
:100A0000C50A4508BC003C07123E84008330031829
:100A1000013E83120313FF000A128A1100230A12F7
:100A20008A1183160313BD00831203130A128A115D
:100A300000230A128A1183160313BE003E084402E3
:100A4000031D242D3D0843020318272D282D292D91
:100A5000332D0130BC003C08C50705304506031D99
:100A6000322D332D012D400803390319382D392D2E
:100A70003F2D2D300A128A150D210A128A11831674
:100A800003134508C100842D0A30A8000030A900D6
:100A90004108BC003C07123E840083300318013E2D
:100AA00083120313FF000A128A1100230A128A110B
:100AB00083160313A000831203130A128A11002362
:100AC0000A128A1183160313A1004408A3004308E5
:100AD000A2000A128A15D9230A128A118316031357
:100AE0002108AB002008AA000A128A159A220A12CD
:100AF0008A11831603132808303EC50045080A12E0
:100B00008A150D210A128A11FF3083160313BC00C7
:100B10003C08C107410A031D8E2D8F2D442D8316DD
:100B200003132F08BD002E08BC00AE0A0319AF0A3C
:100B30003D0883120313FF00831603133C0884004F
:100B4000831203130A128A1100230A128A118316D0
:100B50000313C5004508031DAE2DAF2D992C0800C9
:100B6000223083120313AA00912E25302D0603197B
:100B7000BA2DBB2DC22D2D080A128A1579200A1212
:100B80008A11912EA801D42D2A088400831300080D
:100B9000AD000230A4002408AA072D080A128A1505
:100BA00079200A128A11912E2108A5002008A4009C
:100BB000A00A0319A10A2508FF00240884000A12CC
:100BC0008A1100230A128A11AD00A600A701270886
:100BD000003A0319EC2DCD2D2608003A0319A92E51
:100BE000633A0319C42D073A0319FA2D0D3A031974
:100BF000FA2DCD2D2A08840083130008AB00840A47
:100C00000008AC000230A4002408AA07AC1F092E7B
:100C10000A2E132E0330A4002408A804AB09AC0943
:100C2000AB0A0319AC0AAD01AD0A2D08A4002407D4
:100C3000123E840083300318013EFF000A128A111D
:100C400000230A128A11A5000A128A1100230A122F
:100C50008A11A60026082C02031D302E25082B021F
:100C60000318332E342E352E3F2E0130A4002408D5
:100C7000AD0705302D06031D3E2E3F2E152E2808EC
:100C800003390319442E452E4B2E2D300A128A1596
:100C900079200A128A11831203132D08A900862EC7
:100CA0000A30F8000030F9002908A4002407123E99
:100CB000840083300318013EFF000A128A110023CA
:100CC0000A128A11F0000A128A1100230A128A11EC
:100CD000F1002C08F3002B08F2000A128A155123A8
:100CE0000A128A117108FB007008FA000A128A15AC
:100CF00025220A128A117808303E83120313AD00B0
:100D00002D080A128A1579200A128A11FF308312DF
:100D10000313A4002408A907290A031D902E912E6D
:100D2000502E831203132108A5002008A400A00A56
:100D30000319A10A2508FF00240884000A128A1159
:100D400000230A128A11AD002D08031DA82EA92E1A
:100D5000B52D08000A128A15B0260A128A113730FA
:100D600083160313AE008430AF000A128A11942454
:100D70000A128A110A128A15BD240A128A11243015
:100D800083160313AE008430AF000A128A11942434
:100D90000A128A114C2F5B085C040319D02ED12E45
:100DA000422F4530CA00E32E623083160313CA0077
:100DB000F52E6D3083160313CA00F52E61308316AD
:100DC0000313CA00F52E831603171108003A0319FE
:100DD000EA2EF52E1008013A0319D42E033A03190E
:100DE000D92E013A0319DE2EF52E1C300313AE0066
:100DF0008330AF004A0883160317A100A20121081F
:100E000083160313B00083160317220883160313F7
:100E1000B10083160317130883160313B300831658
:100E20000317120883160313B2008316031715085D
:100E300083160313B50083160317140883160313D0
:100E4000B400A730B6000030B700831603171708A8
:100E500083160313B90083160317160883160313AA
:100E6000B80083160317190883160313BB008316F3
:100E70000317180883160313BA000A128A11942460
:100E80000A128A110A128A156E240A128A110A128B
:100E90008A151F240A128A118316031369086A042B
:100EA000031D532F542FCB2E0A128A1533200A12FA
:100EB0008A110A128A11122883120313B100300812
:100EC0001F39E03EB2007E30A0008330A1000A123C
:100ED0008A11B0250A128A1100300A128A15F121EE
:100EE0000A128A1100300A128A15F1210A128A1197
:100EF00000300A128A15F1210A128A1100300A12F2
:100F00008A15F1210A128A118316031362088312CB
:100F10000313B40083160313610883120313B30091
:100F2000330834040319952F962F972FCD2FFB30BC
:100F3000A0008330A1003408A3003308A2000A12E5
:100F40008A11B0250A128A118312031332080A1279
:100F50008A15F1210A128A11831203132F080A122B
:100F60008A15F1210A128A11831203132E080A121C
:100F70008A15F1210A128A118312031331080A1209
:100F80008A15F1210A128A11FF3083120313B30765
:100F90000318B40AFF30B407902F9C30A0008330B0
:100FA000A1000A128A11B0250A128A11FF300A1212
:100FB0008A15F1210A128A11FF300A128A15F121CD
:100FC0000A128A11FF300A128A15F1210A128A11B7
:100FD000FF300A128A15F1210A128A11B8308312E1
:100FE0000313A0008330A1000A128A11B0250A124F
:0C0FF0008A110800831603138712080002
:10101800831603135208A1005108A0000800831684
:1010280003135408A1005308A000080083120313F7
:101038008C1D1F2820281A288C11080064008001A4
:10104800840A0406031900340406232883160313AC
:1010580091140A128A151A200A128A150800831692
:10106800031311150A128A151A200A128A15080084
:10107800831603178C13831203130D12831603139D
:101088000D160800FF34FF34FF34FF34FF34FF34FB
:10109800FF34FF34FF34FF343D30831203138100E3
:1010A8008316031381128111073081048B160800FF
:1010B800033400340234003401340034A734A73434
:1010C8000134A7340134A934613483160313A00012
:1010D80020088312031393000A128A151A200A1291
:1010E8008A158316031311080800F00083120313EE
:1010F8000C1A7F288028862883160313981C8528B5
:1011080086287A287008831299000800831603132A
:101118000711831603178801831203131708F03980
:101128000C3897003F3097054C089500080083124B
:1011380003135C088F005B088E009010CF30900579
:101148001013831603130C148312031310140800CE
:10115800643400340A340034843403349034013461
:10116800A8346134013400340234FF34FF34FF34CE
:101178001F34A730831603139200FC308312031325
:10118800920587309205831603138C148312031378
:101198008C10121508007E088A007F0882000A1247
:1011A8008A15CF200A128A158000840A04087D0651
:1011B80003190034FF0A0319FE0AD328F300F201C9
:1011C800731CE728E828EC287008F1007108F2077A
:1011D8000310F00D0310F30C7308031DF428F52811
:1011E800E42872080800F000831603178C130C110A
:1011F800831203178E018F0170088D008316031761
:101208008C180729082909290C14831203170C08BC
:10121800080083160313A000831203130C1A152960
:1012280016291C2983160313981C1B291C2910290D
:1012380083160313200883120313990008008316EA
:101248000313A300A201231C2A292B292F292008D4
:10125800A1002108A2070310A00D0310A30C230866
:10126800031D372938292729220808008316031364
:1012780087150716F030831203139405F030940590
:101288008316031788013F308316031393008312D4
:1012980003138C11831603138C1508000130831671
:1012A800031385008316031708148814081583127E
:1012B80003131F083F3980389F00C3309F051F1450
:1012C800831603139F179F121F120C17080083160B
:1012D8000313A000831603178C130C118312031732
:1012E8008E018F01831603132008831203178D00C4
:1012F800831603178C188129822983290C148312D9
:1013080003170C08080000300A128A156B210A120C
:101318008A1583160313A100210803199429952916
:101328009F292108031999299A299F292108031D12
:101338009E299F29A1290030A2290130080083167F
:101348000313A00091150A128A151A200A128A1589
:1013580083120313130883160313A100200803192B
:10136800B629B729B9299112BA29911611160A1264
:101378008A151A200A128A158316031321080800F1
:10138800FB006430F0000030F1007B08F900FA013E
:101398007908F2007A08F3000A128A1577250A12EA
:1013A8008A15700883120313CC005908F0004C0802
:1013B8000A128A15E2200A128A158312031395006D
:1013C8007B08F1005A080A128A1512250A128A1592
:1013D8007B0883120313CE000800F200F3010830E3
:1013E800F4007208F0007408FF3E013EFD29031066
:1013F800F00CFF3E031DFB297018032A072A8312ED
:10140800031307140A2A8312031307108716050EFD
:10141800F000700C0139F1007108F30487120230F2
:101428007402031C182A192A1D2A7308F000700771
:10143800F3000130F4027408031D232A242AF52935
:1014480008007808790403192A2A2B2A5A2AFD0148
:10145800FD0A392A01300310F80DF90DFF3E031D6E
:101468002F2A0130FC007C08FD07F91F3C2A3D2A81
:101478002E2A79087B02031D432A78087A02031C66
:10148800462A472A4D2A7808FA027908031CFB03E2
:10149800FB0201300310F90CF80CFF3E031D4E2A25
:1014A8000130FD02031D592A5A2A3D2A7B08F900FA
:1014B8007A08F800080083160313AB006430A00014
:1014C8000030A1002B08A900AA012908A2002A08B7
:1014D800A3000A128A1547260A128A1583160313CF
:1014E800200883120313CC00590883160313A000A5
:1014F800831203134C080A128A1523210A128A152B
:10150800831203139500831603132B08A10083127B
:1015180003135A080A128A158B270A128A1583168A
:1015280003132B0883120313CE000800831603133A
:10153800280829040319A12AA22AD12AAD01AD0A33
:10154800B02A01300310A80DA90DFF3E031DA62ADD
:101558000130AC002C08AD07A91FB32AB42AA52A6C
:1015680029082B02031DBA2A28082A02031CBD2AAF
:10157800BE2AC42A2808AA022908031CAB03AB0206
:1015880001300310A90CA80CFF3E031DC52A013029
:10159800AD02031DD02AD12AB42A2B08A9002A0893
:1015A800A800080083160313A200A3010830A400B2
:1015B8002208A0002408FF3E013EE42A0310A00CE4
:1015C800FF3E031DE22A2018EA2AEE2A831203139B
:1015D8000714F12A8312031307108716050E8316C2
:1015E8000313A000200C0139A1002108A3048312D1
:1015F800031387120230831603132402031C052BDE
:10160800062B0A2B2308A0002007A3000130A40200
:101618002408031D102B112BDC2A08000A128A1536
:101628002A200A128A1520300A128A1569200A12FD
:101638008A1504300A128A1569200A128A1521307F
:101648000A128A1569200A128A1501300A128A15A7
:10165800A3210A128A1583160313A200A3012208E4
:10166800D3002308D40000300A128A15A3210A12D5
:101678008A1583160313A200A301A20EA30EF0304D
:10168800A30522080F39A304F030A2052208D307C6
:101698000318D40A2308D4070800F501F6017008D6
:1016A80071040319582B592B902BF701F70A672B54
:1016B80001300310F00DF10DFF3E031D5D2B0130CD
:1016C800F4007408F707F11F6A2B6B2B5C2B0130B1
:1016D8000310F50DF60DFF3E031D6C2B7108730208
:1016E800031D782B70087202031C7B2B7C2B832B29
:1016F8007008F2027108031CF303F3027514013039
:101708000310F10CF00CFF3E031D842B0130F7028F
:10171800031D8F2B902B6B2B7608F1007508F000BA
:1017280008000A128A152A200A128A15B5300A12E8
:101738008A1569200A128A1501300A128A15A3210E
:101748000A128A1583160313A200A3012208D100E6
:101758002308D20001300A128A15A3210A128A1519
:1017680083160313A200A301A20EA30EF030A30553
:1017780022080F39A304F030A2052208D107031864
:10178800D20A2308D20700300A128A15A3210A12A6
:101798008A15103A031DD12BD22BD82BFF30831674
:1017A8000313D100FF30D200080083160313A601EB
:1017B800A701200821040319E22BE32B1A2CA50109
:1017C800A50AF12B01300310A00DA10DFF3E031D4A
:1017D800E72B0130A4002408A507A11FF42BF52B43
:1017E800E62B01300310A60DA70DFF3E031DF62BB7
:1017F80021082302031D022C20082202031C052CA9
:10180800062C0D2C2008A2022108031CA303A30206
:10181800261401300310A10CA00CFF3E031D0E2C52
:101828000130A502031D192C1A2CF52B2708A1003D
:101838002608A00008008312031341084204031974
:10184800262C272C6D2CC101C201831603134E08C8
:10185800831603179300831603134D088316031783
:1018680092008316031350088316031795008316F6
:1018780003134F088316031794000A128A150C20C5
:101888000A128A1583160313210883160317970073
:101898008316031320088316031796000A128A1565
:1018A80013200A128A1583160313210883160317B7
:1018B80099008316031320088316031798000A1249
:1018C8008A1595230A128A150A128A1512230A12F2
:1018D8008A150800831603134C08803AFF008130EC
:1018E8007F02031D792C90304B0203187C2C7D2C31
:1018F800822C83160313A201A20A9A2C83160313BF
:101908004C08803AFF0083307F02031D8D2C843001
:101918004B020318902C912C962C0230831603133B
:10192800A2009A2C033083160313A2008312031318
:101938004408803A83160313A00080302002031D58
:10194800A92C22088312031343020318AC2CAD2CD4
:10195800BC2C831603132208A000A10120088312BF
:101968000313C30083160313210883120313C4004F
:101978000800493083160313AE008430AF000A1202
:101988008A1194240A128A150A128A1587210A12C2
:101998008A15003A031DD12CD22CF22C85308316DF
:1019A8000313AE008430AF000A128A1194240A127D
:1019B8008A1500300A128A155F220A128A15FF302A
:1019C800831603179E00FF309F001F30A000FF30D2
:1019D8000A128A151C270A128A15112D8D308316B2
:1019E8000313AE008430AF000A128A1194240A123D
:1019F8008A1500300A128A155F220A128A15FF30EA
:101A0800831603179E00FF309F001F30A000FF3091
:101A18000A128A151C270A128A150800F400831670
:101A280003178C130C15831203178F0174088D008C
:101A3800831603170C18212D222D762DF501F6019A
:101A4800F201F301542D8B137108831203178C00D4
:101A58005530831603178D00AA308D008C148B1710
:101A68008312031349084A0403193B2D3C2D342DD6
:101A7800C901CA0174080A128A15F7200A128A15C0
:101A88007106031D482D492D4E2D0130F2000030FE
:101A9800F300542D0130F5070318F60A0030F60755
:101AA8007608803AFF0080307F02031D5D2D0A30E2
:101AB80075020318602D612D672D720873040319D0
:101AC800662D672D272D7608803AFF0080307F022B
:101AD800031D702D0A307502031C732D742D752D8E
:101AE800762D762D0800F601F11F7B2D7C2D832D98
:101AF800F009F109F00A0319F10AF601F60AF31FD1
:101B0800862D872D902DF209F309F20A0319F30A9D
:101B18000130F4007408F606F701F8017008710442
:101B28000319972D982DCF2DF501F50AA62D013013
:101B38000310F00DF10DFF3E031D9C2D0130F40044
:101B48007408F507F11FA92DAA2D9B2D013003104C
:101B5800F70DF80DFF3E031DAB2D71087302031D31
:101B6800B72D70087202031CBA2DBB2DC22D700848
:101B7800F2027108031CF303F30277140130031017
:101B8800F10CF00CFF3E031DC32D0130F502031DBF
:101B9800CE2DCF2DAA2D76080319D32DD42DD92DCE
:101BA800F709F809F70A0319F80A7808F10077081D
:101BB800F000080083120313B8001030A00084302E
:101BC800A1000A128A11B0250A128A15831203137A
:101BD8003508AE003608AF003708B00038080A12DA
:101BE8008A115C270A128A15831203133808831690
:101BF8000313EC0083120313350883160313ED0057
:101C080083120313360883160313EE00831203139B
:101C1800370883160313EF00E53083120313A0007F
:101C28008330A1000A128A11B0250A128A15831678
:101C380003136C08F1006B080A128A1512250A12A0
:101C48008A15831603136D08F1006B08013E0A120A
:101C58008A1512250A128A15831603136E08F100D5
:101C68006B08023E0A128A1512250A128A15831673
:101C780003136F08F1006B08033E0A128A15122538
:101C88000A128A15080083160313A601A11F4D2EF8
:101C98004E2E552EA009A109A00A0319A10AA601D2
:101CA800A60AA31F582E592E622EA209A309A20A1A
:101CB8000319A30A0130A4002408A606A701A80155
:101CC800200821040319692E6A2EA12EA501A50A50
:101CD800782E01300310A00DA10DFF3E031D6E2EBE
:101CE8000130A4002408A507A11F7B2E7C2E6D2E91
:101CF80001300310A70DA80DFF3E031D7D2E2108FE
:101D08002302031D892E20082202031C8C2E8D2EEF
:101D1800942E2008A2022108031CA303A30227145F
:101D280001300310A10CA00CFF3E031D952E0130BD
:101D3800A502031DA02EA12E7C2E26080319A52E70
:101D4800A62EAB2EA709A809A70A0319A80A2808CE
:101D5800A1002708A00008000830831603138F008D
:101D68000A128A11E2220A128A150A128A155221C7
:101D78000A128A150A128A1550200A128A150A129E
:101D88008A159B200A128A150A128A15BD200A1282
:101D98008A15CF3083160313AE008330AF000A12C2
:101DA8008A1194240A128A150A128A158A200A129C
:101DB8008A15663083160313AE008430AF000A120A
:101DC8008A1194240A128A150A128A153A210A12CB
:101DD8008A15713083160313AE008430AF000A12DF
:101DE8008A1194240A128A150A128A11FA270A12E9
:101DF8008A157B3083160313AE008430AF000A12B5
:101E08008A1194240A128A150A128A153C200A1289
:101E18008A15583083160313AE008430AF000A12B7
:101E28008A1194240A128A1583160313860108005E
:101E380083160313C9001030AE008430AF000A12B5
:101E48008A1194240A128A15831603171E0883160A
:101E58000313C600831603171F0883160313C7004E
:101E680083160317200883160313C80049080A12AB
:101E78008A1132220A128A15831603134908EC00C4
:101E8800831603171E0883160313ED008316031722
:101E98001F0883160313EE00831603172008831602
:101EA8000313EF00E530AE008330AF000A128A1149
:101EB80094240A128A15831603136C08A1006B0870
:101EC8000A128A158B270A128A15831603136D08BE
:101ED800A1006B08013E0A128A158B270A128A157F
:101EE800831603136E08A1006B08023E0A128A15B6
:101EF8008B270A128A15831603136F08A1006B0833
:101F0800033E0A128A158B270A128A1508008316BF
:101F18000313A400831603178C130C1583120317DD
:101F28008F01831603132408831203178D00831669
:101F380003170C18A02FA12FFF2F83160313A50139
:101F4800A601A201A301D92F8B132108831203171D
:101F58008C005530831603178D00AA308D008C1421
:101F68008B178312031349084A040319BC2FBD2F8A
:101F7800B52FC901CA018316031324080A128A154A
:101F88006B210A128A15831603132106031DCD2F10
:101F9800CE2FD32F0130A2000030A300D92F01305B
:101FA800A5070318A60A0030A6072608803AFF00EE
:101FB80080307F02031DE22F0A3025020318E52F27
:101FC800E62FEE2F83160313220823040319ED2F9F
:101FD800EE2FA82F831603132608803AFF008030BF
:101FE8007F02031DF92F0A302502031CFC2FFD2F49
:081FF800FE2FFF2FFF2F080050
:08400000FF3FFF3FFF3FFF3FC0
:04400E00E220FF3E6F
:00000001FF
