:060000000A128A11122809
:10000800FE00030E83120313A4000408A5000A08C7
:10001800A6007F08A7000A128A114A280A128A1124
:1000280015288313CC30FD000C30FE004530FF004E
:10003800BA3084000A128A155B240A128A115D30CC
:10004800FD000C30FE007F30FF00483084000A12AB
:100058008A155B240A128A110A128A11FD270A12CC
:100068008A11FD00A0308400BA300A128A15A7232D
:100078000A128A115D30840068300A128A15A72393
:100088000A128A1183010A128A11E02B0B1D4D28CE
:100098004E28AC283D308100831603132D08803A82
:1000A80083120313A200831603134508803A8312B0
:1000B80003132202031D64288316031344082C0229
:1000C800031C67286828A22883160313AC01AD0116
:1000D8000130AA070318AB0A0030AB0783120313D9
:1000E800600883160313BB00831203135F0883168B
:1000F8000313BA0083120313DF01E001831603130D
:100108002B08803AFF0080307F02031D8D280530C0
:100118002A02031C90289128AA2801308316031369
:10012800AE000030AF00023083120313CC00003061
:10013800CD0083160313AA01AB01AA280130831648
:100148000313AC070318AD0A0030AD070B11152ACD
:100158000C1CAF28B02818295E08803AA20049086C
:10016800803A2202031DBA2848085D02031CBD28F4
:10017800BE28D32883120313DD01DE014D08803A1F
:10018800FF0080307F02031DCB2801304C02031C86
:10019800CE28CF280F29831203139F140F2901306B
:1001A80083120313DD070318DE0A0030DE07480850
:1001B800FF3EA20049080318013EFF3EA3005E0867
:1001C8002306031DE9285D0822060319EC28ED28FB
:1001D8000E294D08803AFF0080307F02031DF62863
:1001E80001304C02031CF928FA280F298312031343
:1001F8004808FE3EA20049080318013EFF3EA3003E
:100208005E082306031D0A295D082206031D0D2921
:100218000E290F299F14831203139F147D088F0042
:1002280058088E000C10152A8C1C1B291C29232900
:10023800831603138701831203138C10152A0C1FCE
:100248002629272977290C134E08A2002207A03E49
:100258008400831603131E0883138000840A831204
:1002680003131E0880004D08803AFF0080307F028B
:10027800031D402901304C02031C432944296929E4
:10028800831203135D085E04031D4B294C2957296B
:10029800FF30CC070318CD0AFF30CD070130CE0060
:1002A8000030CF006D2902305D065E04031D5D2914
:1002B8005E296929FF30CC070318CD0AFF30CD0726
:1002C8000230CE000030CF006D2983120313CE0117
:1002D800CF014E08A200A20DA20D1F082206C339A5
:1002E80022069F00152A0D1E7A297B2983290D12C3
:1002F800013083160313B6000030B700152A0C1E10
:100308008629872989290C12152A8C1E8C298D2962
:100318000F2A8C126208803AFF0080307F02031D8A
:10032800972901306102031C9A299B29BC29FF30B7
:1003380083120313E1070318E20AFF30E20761089A
:10034800593E84001A088313800061086204031D63
:10035800AE29AF29152A5B08FA005A08FB0059088C
:10036800FC005C080A128A118F270A128A11152AC2
:10037800831603133508803AFF0080307F02031D7F
:10038800C72901303402031CCA29CB29F429831652
:100398000313B401B501831203131A080A128A154C
:1003A800F6250A128A11152A013083160313B200A2
:1003B8000030B300152A42309900152A01308316FF
:1003C8000313B4000030B500152A0430E1000030F2
:1003D800E200152AD001D101152A45309900152AC5
:1003E800831203131A08A200A3012308003A031971
:1003F800FE29F1292208613A0319D829033A031979
:10040800DF29013A0319E229073A0319E929013AD0
:100418000319EE29F1298C1D122A132A152A8C1189
:10042800152A831203132708FF0026088A002508C7
:100438008400240E8300FE0E7E0E0900831603132B
:10044800CF003630CE002A2B2530520603192D2A2C
:100458002E2A352A52080A128A1521240A128A11CC
:100468002A2BCC014F2A831603134E0884008313CA
:100478000008D200023083120313C2004208831618
:100488000313CE078316031352080A128A15212470
:100498000A128A112A2B0130CF07FF304F07840038
:1004A8000A128A113D230A128A11D20083120313F9
:1004B800C200C3014308003A0319632A462A4208C6
:1004C800003A03193C2B633A0319372A073A0319F0
:1004D800712A0D3A0319712A462A831603134E0806
:1004E800840083130008D000840A0008D100023079
:1004F80083120313C200420883160313CE07D11FC9
:10050800862A872A942A033083120313C2004208DA
:1005180083160313CC04D009D109D00A0319D10AD0
:10052800D201D20A520883120313C2004207013EC5
:1005380084000A128A113D230A128A11C3000A1282
:100548008A113D230A128A11C40044088316031332
:100558005102031DB52A831203134308831603139C
:1005680050020318B82AB92ABA2AC82A01308312B5
:100578000313C200420883160313D207053052063C
:10058800031DC72AC82A962A4C0803390319CD2AFD
:10059800CE2AD42A2D300A128A1521240A128A1149
:1005A800831603135208CD001D2B0A308312031340
:1005B800B0000030B100831603134D0883120313F3
:1005C800C2004207013E84000A128A113D230A1222
:1005D8008A11A8000A128A113D230A128A11A90059
:1005E80083160313510883120313AB0083160313F6
:1005F800500883120313AA000A128A1526270A1222
:100608008A11831203132908B3002808B2000A12BA
:100618008A1568260A128A11831203133008303E9D
:1006280083160313D20052080A128A1521240A12CB
:100638008A11FF3083120313C20042088316031382
:10064800CD074D0A031D292B2A2BD92A01308316E1
:100658000313CF07FF304F0784000A128A113D2386
:100668000A128A11D2005208031D3B2B3C2B282A60
:10067800080003308A000408840A82070034013421
:1006880000340A34003464340034E8340334103459
:10069800273452347534693464346F3420343D342B
:1006A8002034633461347434653467346F3472349D
:1006B800693461342034253464342C34203468346B
:1006C80075346D34653464346134643420343D34B5
:1006D8002034253464342034253425342C34203413
:1006E800743465346D347034653472346134743400
:1006F80075347234613420343D3420342534643404
:10070800203425346334203443342C3420344334A7
:100718004F34323420343D3420342534643420348A
:10072800703470346D342C3420344C3475346D345A
:1007380069346E346F3473346934643461346434C6
:1007480020343D3420342534643420346C347834F7
:100758000D340A34003449346E34693463346934EE
:100768006F3420347434653472346D3469346E34C3
:10077800613464346F340D340A34003450347234C4
:100788007534653462346F3420346D3465346D34B7
:100798006F347234693461340034443465346634F7
:1007A800613475346C3474340034433475347334C0
:1007B80074346F346D3400340A128A158B250A128A
:1007C8008A110A128A156C270A128A116D300A12C8
:1007D8008A1122220A128A116B2C831603133208FB
:1007E80033040319F82BF92B612C453083120313BA
:1007F800C7000D2C623083120313C7001F2C6D3005
:1008080083120313C7001F2C613083120313C70020
:100818001F2C831603133B08003A0319142C1F2CB2
:100828003A08013A0319FE2B033A0319032C013A3B
:100838000319082C1F2C83124708C500C601450858
:10084800B6004608B700831603133D088312031346
:10085800B900831603133C0883120313B8008316E8
:1008680003133F0883120313BB00831603133E08C8
:1008780083120313BA00A730BC000030BD008316F2
:100888000313410883120313BF00831603134008A0
:1008980083120313BE008316031343088312031342
:1008A800C10083160313420883120313C0000B30E0
:1008B8000A128A1122220A128A110A128A15E326BA
:1008C8000A128A110A128A15A4260A128A11831298
:1008D800031350085104031D722C732CF12B0A12B8
:1008E8008A15B8230A128A110A128A111228831249
:1008F8000313AC00831603178C130C15831203170C
:100908008F01831203132C08831203178D0083169B
:1009180003170C18902C912CED2C83120313AD01A6
:10092800AE01AA01AB01C72C8B1329088312031748
:100938008C005530831603178D00AA308D008C1457
:100948008B178C18A82CA92CA52C83160313B60179
:10095800B701831203132C080A128A15F2240A120B
:100968008A11831203132906031DBB2CBC2CC12C2E
:100978000130AA000030AB00C72C0130AD070318C6
:10098800AE0A0030AE072E08803AFF0080307F02A2
:10099800031DD02C0A302D020318D32CD42CDC2CA8
:1009A800831203132A082B040319DB2CDC2C982C44
:1009B800831203132E08803AFF0080307F02031D44
:1009C800E72C0A302D02031CEA2CEB2CEC2CED2C26
:1009D800ED2C831603170C11080083120313AE01C4
:1009E800A91FF72CF82CFF2CA809A909A80A031994
:1009F800A90AAE01AE0AAB1F022D032D0C2DAA09C0
:100A0800AB09AA0A0319AB0A0130AC002C08AE06E0
:100A1800AF01B001280829040319132D142D4B2DFB
:100A2800AD01AD0A222D01300310A80DA90DFF3E1E
:100A3800031D182D0130AC002C08AD07A91F252D6A
:100A4800262D172D01300310AF0DB00DFF3E031DED
:100A5800272D29082B02031D332D28082A02031CE1
:100A6800362D372D3E2D2808AA022908031CAB0372
:100A7800AB022F1401300310A90CA80CFF3E031D74
:100A88003F2D0130AD02031D4A2D4B2D262D2E087A
:100A980003194F2D502D552DAF09B009AF0A031971
:100AA800B00A3008A9002F08A8000800F601F11FB5
:100AB8005E2D5F2D662DF009F109F00A0319F10A80
:100AC800F601F60AF31F692D6A2D732DF209F30951
:100AD800F20A0319F30A0130F4007408F606F70164
:100AE800F8017008710403197A2D7B2DB22DF501D8
:100AF800F50A892D01300310F00DF10DFF3E031D9D
:100B08007F2D0130F4007408F507F11F8C2D8D2D11
:100B18007E2D01300310F70DF80DFF3E031D8E2DBD
:100B280071087302031D9A2D70087202031C9D2D13
:100B38009E2DA52D7008F2027108031CF303F30221
:100B4800771401300310F10CF00CFF3E031DA62DA5
:100B58000130F502031DB12DB22D8D2D7608031934
:100B6800B62DB72DBC2DF709F809F70A0319F80AAD
:100B78007808F1007708F000080000300A128A159A
:100B8800C0250A128A1100300A128A15C0250A12D5
:100B98008A1100300A128A15C0250A128A110030FB
:100BA8000A128A15C0250A128A11831203134B08E8
:100BB800B1004A08B0003108803AFF0080307F0257
:100BC800031DE82D013030020318EB2DEC2DED2D1F
:100BD8000E2EEF300A128A15C0250A128A11FF302C
:100BE8000A128A15C0250A128A11FF300A128A15BC
:100BF800C0250A128A11FF300A128A15C0250A1266
:100C08008A11FF3083120313B0070318B10AFF30AB
:100C1800B107DF2DFF300A128A15C0250A128A1182
:100C2800FF300A128A15C0250A128A11FF300A12EB
:100C38008A15C0250A128A11FF300A128A15C025A2
:100C48000A128A110800F400831603178C130C1576
:100C5800831203178F0174088D00831603170C186D
:100C6800362E372E892EF501F601F201F301672E93
:100C78008B137108831203178C00553083160317E2
:100C88008D00AA308D008C148B178C184C2E4D2E8D
:100C9800492E83160313B601B70174080A128A1580
:100CA80094240A128A117106031D5B2E5C2E612E94
:100CB8000130F2000030F300672E0130F507031809
:100CC800F60A0030F6077608803AFF0080307F0287
:100CD800031D702E0A3075020318732E742E7A2E97
:100CE800720873040319792E7A2E3C2E7608803AFE
:100CF800FF0080307F02031D832E0A307502031C1B
:100D0800862E872E882E892E892E831603170C117E
:100D1800080000300A128A1557250A128A11003075
:100D28000A128A1557250A128A1100300A128A15E2
:100D380057250A128A1100300A128A1557250A12F5
:100D48008A11831203134B08F9004A08F80079083E
:100D5800803AFF0080307F02031DB42E01307802F4
:100D68000318B72EB82EB92ED82EEF300A128A15CE
:100D780057250A128A11FF300A128A1557250A12B6
:100D88008A11FF300A128A1557250A128A11FF3074
:100D98000A128A1557250A128A11FF30F807031814
:100DA800F90AFF30F907AB2EFF300A128A155725CA
:100DB8000A128A11FF300A128A1557250A128A1157
:100DC800FF300A128A1557250A128A11FF300A12B3
:100DD8008A1557250A128A1108000A128A15AF23A4
:100DE8000A128A11B5300A128A15F1230A128A11D9
:100DF80001300A128A1532250A128A118312031346
:100E0800AA00AB012A0883160313A6008312031352
:100E18002B0883160313A70001300A128A153225FE
:100E28000A128A1183120313AA00AB01AA0EAB0E91
:100E3800F030AB052A080F39AB04F030AA052A08B0
:100E480083160313A6070318A70A831203132B0894
:100E580083160313A70700300A128A1532250A12CF
:100E68008A11103A031D392F3A2F402FFF3083166D
:100E78000313A600FF30A700080083120313B6006F
:100E88003208AD003308AE003408AF0036080A1245
:100E98008A11C1250A128A11831203133608D90050
:100EA8003208DA003308DB003408DC006708B500D4
:100EB800A90135080A128A117B240A128A118312A1
:100EC80003135908A90056080A128A117B240A122A
:100ED8008A11831203135A08A9005608013E0A1200
:100EE8008A117B240A128A11831203135B08A90052
:100EF8005608023E0A128A117B240A128A118312AA
:100F080003135C08A9005608033E0A128A117B24C1
:100F18000A128A11080083120313A1007A08F50047
:100F28007B08F6007C08F70021080A128A118D2632
:100F38000A128A11831203132108D9007A08DA00E9
:100F48007B08DB007C08DC006708A000F1012008B2
:100F58000A128A1127260A128A11831203135908C2
:100F6800F10056080A128A1127260A128A118312DA
:100F780003135A08F1005608013E0A128A1127265F
:100F88000A128A11831203135B08F1005608023E05
:100F98000A128A1127260A128A11831203135C087F
:100FA800F1005608033E0A128A1127260A128A11EE
:100FB8000800831603131811831603178711831665
:100FC80003139A012030990018121813831203137F
:100FD8001813831603130C168C1683120313981711
:100FE80083160313981298160800831603138712A2
:040FF8000800613458
:10173E00831203138C1DA42BA52B9F2B8C11080039
:10174E0064008001840A0406031900340406A82BE1
:10175E008316031391140A128A159F230A128A15EF
:10176E0008008316031311150A128A159F230A12F5
:10177E008A150800831603178C13831203130D1298
:10178E00831603130D1608003D30831203138100D8
:10179E008316031381128111073081048B16080002
:1017AE0083160313270883120313A900831603134A
:1017BE00260883120313A8000800831603132908B2
:1017CE0083120313A900831603132808831203132D
:1017DE00A800080083120313A800280893000A1219
:1017EE008A159F230A128A158316031311080800FF
:1017FE00831603130711831603178801831203132D
:10180E001708F0390C3897003F309705640895009B
:10181E0008007D08831203138F0058088E00901065
:10182E00CF3090051013831603130C148312031379
:10183E001014080083120313A80083120C1A282C0C
:10184E00292C2F2C83160313981C2E2C2F2C242C72
:10185E008312280899000800A730831603139200FC
:10186E00FC308312031392058730920583160313FF
:10187E008C14831203138C1012150800FF34FF34DE
:10188E00FF34FF34FF34FF34FF34FF34FF34FF34B2
:10189E00643400348434033490340134A834613415
:1018AE007E088A007F0882000A128A1557240A12BF
:1018BE008A158000840A04087D0603190034FF0A85
:1018CE000319FE0A5B2CF300F201731C6F2C702CB3
:1018DE00742C7008F1007108F2070310F00D03105C
:1018EE00F30C7308031D7C2C7D2C6C2C72080800E5
:1018FE00033400340A34003402340034013400342A
:10190E0001340034A734A7340134A734023401342F
:10191E00A934FF34FF34FF341F34F000831603174D
:10192E008C130C11831203178E018F0170088D001A
:10193E00831603178C18A42CA52CA62C0C1483121A
:10194E0003170C08080083120313AB00AA012B1C0B
:10195E00B12CB22CB62C2808A9002908AA0703100E
:10196E00A80D0310AB0C2B08031DBE2CBF2CAE2CE8
:10197E002A0808008316031387150716F030831202
:10198E0003139405F03094058316031788013F3036
:10199E00831603139300831203138C118316031300
:1019AE008C15080001308316031385008316031768
:1019BE00081488140815831203131F083F39803842
:1019CE009F00C3309F051F14831603139F179F128A
:1019DE001F120C17080083120313A8008316031797
:1019EE008C130C11831203178E018F0183120313B4
:1019FE002808831203178D00831603178C18082DE1
:101A0E00092D0A2D0C14831203170C0808008312DB
:101A1E0003136708AB002B080A128A15F2240A1268
:101A2E008A1583120313AC002C0803191F2D202DC9
:101A3E002A2D2C080319242D252D2A2D2C08031DA3
:101A4E00292D2A2D2D2DA901AA01312D0030AA00F4
:101A5E000130A900080083120313A8008316031394
:101A6E0091150A128A159F230A128A1583120313DF
:101A7E001308A90028080319452D462D4A2D831653
:101A8E00031391124D2D83160313911611160A127C
:101A9E008A159F230A128A15831203132908080038
:101AAE00F200F3010830F4007208F0007408FF3EF3
:101ABE00013E632D0310F00CFF3E031D612D7018C7
:101ACE00692D6D2D831203130714702D83120313CA
:101ADE0007108716050EF000700C0139F100710821
:101AEE00F304871202307402031C7E2D7F2D832D8A
:101AFE007308F0007007F3000130F4027408031D40
:101B0E00892D8A2D5B2D08000830831603138F0054
:101B1E000A128A11DD270A128A150A128A15D92489
:101B2E000A128A150A128A15CB230A128A150A126C
:101B3E008A1510240A128A150A128A1533240A12DB
:101B4E008A150A128A15FF230A128A150A128A1595
:101B5E00C1240A128A150A128A11F9270A128A1545
:101B6E000A128A15C1230A128A15831603138601D7
:101B7E00080083120313AA00AB010830AC002A0838
:101B8E00A8002C08FF3E013ECE2D0310A80CFF3EF0
:101B9E00031DCC2D2818D42DD82D83120313071412
:101BAE00DB2D8312031307108716050EA800280CD1
:101BBE000139A9002908AB04871202302C02031C3C
:101BCE00E92DEA2DEE2D2B08A8002807AB000130D9
:101BDE00AC022C08031DF42DF52DC62D0800FC00BB
:101BEE006430F0000030F1007C08F900FA01790849
:101BFE00F2007A08F3000A128A115A250A128A157F
:101C0E00700883120313E4005508F00064080A12EA
:101C1E008A156A240A128A158312031395007C080A
:101C2E00F10057080A128A1127260A128A15831202
:101C3E0003136708FB00F1017B080A128A1127269D
:101C4E000A128A157C0883120313E6000800831219
:101C5E000313B4006430A8000030A9003408B100AA
:101C6E00B2013108AA003208AB000A128A11F1241F
:101C7E000A128A15831203132808E4005508A800D7
:101C8E0064080A128A15AA240A128A1583120313EB
:101C9E0095003408A90057080A128A117B240A12EB
:101CAE008A15831203136708B300A90133080A12B9
:101CBE008A117B240A128A15831203133408E60054
:101CCE000800831203133008310403196F2E702E8F
:101CDE009F2EB501B50A7E2E01300310B00DB10D49
:101CEE00FF3E031D742E0130B4003408B507B11F3A
:101CFE00812E822E732E31083302031D882E30085A
:101D0E003202031C8B2E8C2E922E3008B20231081A
:101D1E00031CB303B30201300310B10CB00CFF3E31
:101D2E00031D932E0130B502031D9E2E9F2E822E73
:101D3E003308B1003208B0000800831603132E08D2
:101D4E002F040319AB2EAC2EE22EAE01AF012308E9
:101D5E00BD002208BC002508BF002408BE000A12E0
:101D6E008A15D7230A128A1583120313290883169C
:101D7E000313C10083120313280883160313C00034
:101D8E000A128A15E4230A128A15831203132908EC
:101D9E0083160313C3008312031328088316031339
:101DAE00C2000A128A11F1260A128A150A128A151F
:101DBE00B5270A128A150800831603132108803AE4
:101DCE00FF0081307F02031DEE2E9030200203189B
:101DDE00F12EF22EF72E83120313AA01AA0A0F2F49
:101DEE00831603132108803AFF0083307F02031D00
:101DFE00022F843020020318052F062F0B2F0230DE
:101E0E0083120313AA000F2F033083120313AA00A9
:101E1E006008803AA80080302802031D182F2A0877
:101E2E005F0203181B2F1C2F252F831203132A0862
:101E3E00A800A9012808DF002908E0000800831285
:101E4E000313AE01AF012808290403192F2F302FD9
:101E5E00672FAD01AD0A3E2F01300310A80DA90D5D
:101E6E00FF3E031D342F0130AC002C08AD07A91F17
:101E7E00412F422F332F01300310AE0DAF0DFF3E19
:101E8E00031D432F29082B02031D4F2F28082A025A
:101E9E00031C522F532F5A2F2808AA022908031C5D
:101EAE00AB03AB022E1401300310A90CA80CFF3E9D
:101EBE00031D5B2F0130AD02031D662F672F422FCE
:101ECE002F08A9002E08A800080080300A128A11D7
:101EDE0022220A128A150A128A150E250A128A154C
:101EEE008312031329032A04031D7E2F7F2F9A2F9B
:101EFE008F300A128A1122220A128A1500300A1213
:101F0E008A152E260A128A15FF3083120313B20089
:101F1E00FF30B3001F30B400FF300A128A11412780
:101F2E000A128A15B42F97300A128A1122220A1227
:101F3E008A1500300A128A152E260A128A15FF30CB
:101F4E0083120313B200FF30B3001F30B400FF3012
:101F5E000A128A1141270A128A1508000A128A15D6
:101F6E00AF230A128A1520300A128A15F1230A129B
:101F7E008A1504300A128A15F1230A128A152130A5
:101F8E000A128A15F1230A128A1501300A128A15CD
:101F9E0032250A128A1583120313AA00AB012A08EE
:101FAE0083160313A800831203132B08831603133F
:101FBE00A90000300A128A1532250A128A158312D8
:101FCE000313AA00AB01AA0EAB0EF030AB052A0824
:101FDE000F39AB04F030AA052A0883160313A8079D
:101FEE000318A90A831203132B0883160313A907D8
:021FFE000800D9
:08400000FF3FFF3FFF3FFF3FC0
:04400E00E220FF3E6F
:00000001FF
