:060000000A128A110E280D
:10000800FE00030E83120313AC000A08AD000A12A7
:100018008A1138280A128A11112883135830FD00D2
:100028000530FE002630FF00503084000A128A1185
:10003800E7240A128A110A128A112E250A128A1135
:10004800FB000A128A112F250A128A11FC00C80126
:10005800C901CA01CB01CC01CD01CE01CF01FD01FF
:1000680083010A128A11012C0B1D3B283C281329F5
:100078003D3081004908803AA4005108803A2402A2
:10008800031D482850084802031C4B284C280929FE
:1000980083120313C801C9014F087D02031C5528A8
:1000A80056285928FB01FB0A60287C084F02031CCC
:1000B8005E285F286028FB017B08031D64286528EB
:1000C8006C280130CF020130A4002408D50772281B
:1000D8000130A4002408CF070130D5024F0886005C
:1000E8000430F6000030F7004F08A400A5012408EA
:1000F800F0002508F1005408A600A7012608F20020
:100108002708F3000A128A1161240A128A11710859
:10011800F9007008F8000A128A11CF220A128A110F
:1001280076088312031395005408F0004F080A124A
:100138008A11CE240A128A11033983120313A400E8
:10014800A40E17082406CF39240697000430F600B9
:100158000030F7005508A400A5012408F000250880
:10016800F1005408A600A7012608F2002708F300AA
:100178000A128A1161240A128A117108F90070089A
:10018800F8000A128A11CF220A128A1176088312FD
:1001980003139B005508A400A5012408F0002508B6
:1001A800F1005408A600A7012608F2002708F3006A
:1001B8000A128A1161240A128A1170088312031321
:1001C800A8007108A900290DA90CA80C2808013954
:1001D800AA002A07AB00AB0EAB0D1D082B06DF39B2
:1001E8002B069D005408F00055080A128A11CE24E7
:1001F8000A128A11013983120313A400A40E1D08E0
:100208002406EF3924069D001129013083120313B7
:10021800C8070318C90A0030C9070B111D298C1C0F
:10022800162917291D29831603138701831203131F
:100238008C102D088A002C0E8300FE0E7E0E0900FD
:1002480083120313C4003C30C100E6292530470659
:1002580003192F293029372947080A128A11F62449
:100268000A128A11E629C2010130C407FF30440787
:1002780084000A128A11B9240A128A11C700BE0022
:10028800BF013F08003A03194A29E6293E08003A07
:100298000319F829643A031955290D3A0319552900
:1002A800E6294108840083130008C500840A000871
:1002B800C6000230BE003E08C107C61F6429652972
:1002C8006E290330BE003E08C204C509C609C50A26
:1002D8000319C60AC701C70A4708BE003E07013E00
:1002E80084000A128A11B9240A128A11BF000A125C
:1002F8008A11B9240A128A11C00040084602031D57
:1003080087293F08450203188A298B298C299629B1
:100318000130BE003E08C70705304706031D952972
:10032800962970294208033903199B299C29A22977
:100338002D300A128A11F6240A128A118312031325
:100348004708C300DB290A30B6000030B70043086D
:10035800BE003E07013E84000A128A11B9240A121F
:100368008A11AE000A128A11B9240A128A11AF0042
:100378004608B1004508B0000A128A117F230A1204
:100388008A11831203132F08B9002E08B8000A1225
:100398008A11C5230A128A11831203133608303EC4
:1003A800C70047080A128A11F6240A128A11FF3078
:1003B80083120313BE003E08C307430A031DE52941
:1003C800E629A729013083120313C407FF30440725
:1003D80084000A128A11B9240A128A11C700470830
:1003E800031DF729F8292A29080083160313870112
:1003F800831603178801831203131D08F0390C387C
:100408009D000430B4000030B5005508BD00BE01A1
:100418003D08AE003E08AF005408BF00C0013F08C9
:10042800B0004008B1000A128A113A240A128A114F
:10043800831203132F08B7002E08B6000A128A1178
:1004480066220A128A118312031334089B00550886
:10045800BD00BE013D08AE003E08AF005408BF0015
:10046800C0013F08B0004008B1000A128A113A24BE
:100478000A128A11831203132E08C1002F08C20022
:10048800420DC20CC10C41080139C3004307C40026
:10049800C40EC40D1D084406DF3944069D005408E7
:1004A800AE0055080A128A11A2240A128A110139CB
:1004B80083120313BD00BD0E1D083D06EF393D062E
:1004C8009D00080083120313BA01B51F6C2A6D2A18
:1004D800742AB409B509B40A0319B50ABA01BA0AE3
:1004E800B71F772A782A812AB609B709B60A0319E5
:1004F800B70A0130B8003808BA06BB01BC01340895
:1005080035040319882A892AC02AB901B90A972A01
:1005180001300310B40DB50DFF3E031D8D2A0130C7
:10052800B8003808B907B51F9A2A9B2A8C2A0130C7
:100538000310BB0DBC0DFF3E031D9C2A3508370276
:10054800031DA82A34083602031CAB2AAC2AB32A96
:100558003408B6023508031CB703B7023B14013050
:100568000310B50CB40CFF3E031DB42A0130B902C8
:10057800031DBF2AC02A9B2A3A080319C42AC52A80
:10058800CA2ABB09BC09BB0A0319BC0A3C08B50046
:100598003B08B400080083120313A101F71FD52AF2
:1005A800D62ADD2AF609F709F60A0319F70AA1017E
:1005B800A10AF91FE02AE12AEA2AF809F909F80A42
:1005C8000319F90A0130FA007A08A106A201A30169
:1005D800760877040319F12AF22A292BA001A00A28
:1005E800002B01300310F60DF70DFF3E031DF62A10
:1005F8000130FA007A08A007F71F032B042BF52A0D
:1006080001300310A20DA30DFF3E031D052B770833
:100618007902031D112B76087802031C142B152B65
:100628001C2B7608F8027708031CF903F902221438
:1006380001300310F70CF60CFF3E031D1D2B013093
:10064800A002031D282B292B042B210803192D2B6D
:100658002E2B332BA209A309A20A0319A30A2308E4
:10066800F7002208F6000800831603138701831693
:1006780003178801831203131708F0390C38970001
:100688003F3097050430B4000030B5004F08BD0076
:10069800BE013D08AE003E08AF005408BF00C001CF
:1006A8003F08B0004008B1000A128A113A240A1221
:1006B8008A11831203132F08B7002E08B6000A12F6
:1006C8008A1166220A128A118312031334089500CC
:1006D8005408AE004F080A128A11A2240A128A117D
:1006E800033983120313BD00BD0E17083D06CF3929
:1006F8003D069700080083120313B301B4012E08C6
:100708002F040319882B892BC02BB501B50A972B09
:1007180001300310AE0DAF0DFF3E031D8D2B0130D0
:10072800B2003208B507AF1F9A2B9B2B8C2B0130D8
:100738000310B30DB40DFF3E031D9C2B2F0831028F
:10074800031DA82B2E083002031CAB2BAC2BB32B9C
:100758002E08B0022F08031CB103B1023314013074
:100768000310AF0CAE0CFF3E031DB42B0130B502D5
:10077800031DBF2BC02B9B2B3408AF003308AE00E2
:10078800080083120313360837040319CC2BCD2B2A
:10079800FC2BBB01BB0ADB2B01300310B60DB70DD8
:1007A800FF3E031DD12B0130BA003A08BB07B71F23
:1007B800DE2BDF2BD02B37083902031DE52B36083B
:1007C8003802031CE82BE92BEF2B3608B802370850
:1007D800031CB903B90201300310B70CB60CFF3E75
:1007E800031DF02B0130BB02031DFB2BFC2BDF2B61
:1007F8003908B7003808B600080008308316031314
:100808008F000A128A1186240A128A110A128A1182
:100818001A250A128A110A128A1108250A128A113F
:100828000A128A1138230A128A110A128A11F92126
:100838000A128A118316031386018B170B1783126A
:1008480003134C084D0403192A2C2B2C232CCC0100
:10085800CD010030BC00BD000B300A128A112421E2
:100868000A128A11232C0A128A110E2883120313E2
:10087800B201B3012E1C412C422C482C3008B2077F
:100888000318B30A3108B30701300310B00DB10DD6
:10089800FF3E031D492C01300310AF0CAE0CFF3E88
:1008A800031D502C2E082F04031D5B2C5C2C3E2CA2
:1008B8003308AF003208AE000800F401F501701CDF
:1008C800662C672C6D2C7208F4070318F50A730858
:1008D800F50701300310F20DF30DFF3E031D6E2CDA
:1008E80001300310F10CF00CFF3E031D752C70084D
:1008F8007104031D802C812C632C7508F100740889
:10090800F0000800831603131811831603178711C4
:10091800831603139A0120309900181218138312B2
:1009280003131813831603130C128C128312031368
:100938009817831603139812981608008312031346
:10094800B100B001311CA92CAA2CAE2C2E08AF0086
:100958002F08B0070310AE0D0310B10C3108031DAA
:10096800B62CB72CA62C3008080004308A000408DE
:10097800840A82070034013400340A3400346434B1
:100988000034E834033410342734253464340D3407
:100998000A340034F300F201731CD32CD42CD82C65
:1009A8007008F1007108F2070310F00D0310F30C42
:1009B8007308031DE02CE12CD02C720808007E0877
:1009C8008A007F0882000A128A11E3240A128A1117
:1009D8008000840A04087D0603190034FF0A0319FD
:1009E800FE0AE72C83120313AE0083120C1AFD2CA7
:1009F800FE2C042D83160313981C032D042DF92CAB
:100A080083122E0899000800A7308316031392005A
:100A1800FC30831203139205873092058316031363
:100A28008C14831203138C10121508003D308312A6
:100A38000313810083160313811281110730810487
:100A48008B160800053400344C343B34A734643426
:080A58004D343B3401346434D9
:08400000FF3FFF3FFF3FFF3FC0
:04400E00E220FF3E6F
:00000001FF
