:100000000A128A1112286134FE00030E83120313B0
:10001000A8000408A9000A08AA007F08AB000A1279
:100020008A114A280A128A1115288313CE30FD003E
:100030000D30FE003E30FF00B83084000A128A15F1
:1000400004250A128A115730FD000C30FE00CB3017
:10005000FF00463084000A128A1504250A128A110C
:100060000A128A1103200A128A11FD00A0308400AE
:10007000B8300A128A1548240A128A1157308400AF
:1000800064300A128A1548240A128A1183010A125E
:100090008A111B2B0B1D4D284E28AC283D308100AA
:1000A000831603132D08803A83120313A3008316CB
:1000B00003134308803A831203132302031D6428A9
:1000C0008316031342082C02031C67286828A22801
:1000D00083160313AC01AD010130AA070318AB0A64
:1000E0000030AB07831203135A0883160313B900B9
:1000F00083120313590883160313B80083120313E2
:10010000D901DA01831603132B08803AFF008030EF
:100110007F02031D8D2805302A02031C9028912898
:10012000AA28013083160313AE000030AF0002305E
:1001300083120313C8000030C90083160313AA01F9
:10014000AB01AA28013083160313AC070318AD0ACC
:100150000030AD070B11292A0C1CAF28B028182934
:100160005808803AA3004708803A2302031DBA28A2
:1001700046085702031CBD28BE28D3288312031348
:10018000D701D8014908803AFF0080307F02031D63
:10019000CB2801304802031CCE28CF280F29831218
:1001A00003139F140F29013083120313D707031879
:1001B000D80A0030D8074608FF3EA30047080318B6
:1001C000013EFF3EA40058082406031DE9285708F5
:1001D00023060319EC28ED280E294908803AFF0070
:1001E00080307F02031DF62801304802031CF928E5
:1001F000FA280F29831203134608FE3EA30047087E
:100200000318013EFF3EA40058082406031D0A29D6
:1002100057082306031D0D290E290F299F14831249
:1002200003139F147D088F0052088E000C10292A9A
:100230008C1C1B291C292329831603138701831275
:1002400003138C10292A0C1F262927298B290C130C
:100250001E08A300A401A30EA40EF030A4052308D9
:100260000F39A404F030A305831603131E0883126C
:1002700003132307A5000030031801302407A6004C
:100280004A08A7002707A03E8400250883138000A2
:10029000840A260880004908803AFF0080307F02E7
:1002A000031D542901304802031C572958297D2970
:1002B0008312031357085804031D5F2960296B2913
:1002C000FF30C8070318C90AFF30C9070130CA0048
:1002D0000030CB008129023057065804031D7129D4
:1002E00072297D29FF30C8070318C90AFF30C907E2
:1002F0000230CA000030CB00812983120313CA01E7
:10030000CB014A08A300A30DA30D1F082306C33980
:1003100023069F00292A0D1E8E298F2995290D124B
:100320000130DD000030DE00292A0C1E98299929B1
:100330009B290C12292A8C1E9E299F29232A8C1264
:100340005C08803AFF0080307F02031DA92901303C
:100350005B02031CAC29AD29CE29FF3083120313A5
:10036000DB070318DC0AFF30DC075B08533E840020
:100370001A08831380005B085C04031DC029C1298F
:10038000292A5508A0005408A1005308A2005608C5
:100390000A128A157A270A128A11292A8316031348
:1003A0003508803AFF0080307F02031DD9290130D3
:1003B0003402031CDC29DD29082A83160313B40147
:1003C000B501831203131A080A128A15FD250A12B1
:1003D0008A11292A013083160313B2000030B300BA
:1003E000292A42309900292A013083160313B400C8
:1003F0000030B500292A0430DB000030DC00292A57
:1004000083160313CC01CD01292A45309900292AEE
:10041000831203131A08A300A4012408003A031945
:10042000122A052A2308613A0319EA29033A031913
:10043000F129013A0319F429073A0319FB29013A72
:100440000319002A052A8C1D262A272A292A8C11FD
:10045000292A831203132B08FF002A088A0029087F
:100460008400280E8300FE0E7E0E090083160313FF
:10047000D3003A30D100082B253057060319412A02
:10048000422A492A57080A128A15EE240A128A11AA
:10049000082BD2010130D307FF30530784000A1222
:1004A0008A117B260A128A11D700CE00CF014F088D
:1004B000003A03195C2A082B4E08003A03191A2B3C
:1004C000643A0319672A0D3A0319672A082B510861
:1004D000840083130008D500840A0008D600023087
:1004E000CE004E08D107D61F762A772A802A0330FD
:1004F000CE004E08D204D509D609D50A0319D60A6A
:10050000D701D70A5708CE004E07013E84000A12D1
:100510008A117B260A128A11CF000A128A117B26C1
:100520000A128A11D00050085602031D992A4F085A
:10053000550203189C2A9D2A9E2AA82A0130CE0023
:100540004E08D70705305706031DA72AA82A822A76
:10055000520803390319AD2AAE2AB42A2D300A12E3
:100560008A15EE240A128A11831603135708D40041
:10057000FD2A0A3083120313B4000030B50083163D
:1005800003135408CE004E07013E84000A128A115C
:100590007B260A128A1183120313AC000A128A11F5
:1005A0007B260A128A11AD008316031356088312A4
:1005B0000313AF0083160313550883120313AE0011
:1005C0000A128A11D5260A128A11831203132D08E2
:1005D000B7002C08B6000A128A15FF260A128A11E3
:1005E000831203133408303E83160313D7005708D1
:1005F0000A128A15EE240A128A11FF308316031399
:10060000CE004E08D407540A031D072B082BB92A25
:10061000013083160313D307FF30530784000A12F7
:100620008A117B260A128A11D7005708031D192B3D
:100630001A2B3C2A08000A128A15C3260A128A11AC
:100640000A128A111D260A128A11912B32083304CC
:1006500003192B2B2C2B872B4530D800382B6230DD
:10066000D800482B6D30D800482B6130D800482B7B
:100670003908003A03193D2B482B3808013A031971
:100680002F2B033A0319322B013A0319352B482B30
:10069000580883120313C400C5014408BA00450872
:1006A000BB00831603133B0883120313BD0083169C
:1006B00003133A0883120313BC00831603133D0887
:1006C00083120313BF00831603133C088312031322
:1006D000BE00831603133F0883120313C100831661
:1006E00003133E0883120313C0008316031341084B
:1006F00083120313C30083160313400883120313EA
:10070000C2000B300A128A1136220A128A110A120A
:100710008A15BD270A128A110A128A153B270A1266
:100720008A11831603134C084D04031D982B992B33
:10073000262B0A128A1559240A128A110A128A11C2
:10074000122883120313B000831603178C130C15A1
:10075000831203178F0183120313300883120317C8
:100760008D00831603170C18B62BB72B132C83128E
:100770000313B101B201AE01AF01ED2B8B132D08B4
:10078000831203178C005530831603178D00AA308F
:100790008D008C148B17831203135D085E040319FC
:1007A000D22BD32BCB2BDD01DE0130080A128A15A8
:1007B00084250A128A11831203132D06031DE12BCF
:1007C000E22BE72B0130AE000030AF00ED2B013003
:1007D000B1070318B20A0030B2073208803AFF00AE
:1007E00080307F02031DF62B0A3031020318F92BEB
:1007F000FA2B022C831203132E082F040319012C49
:10080000022CBE2B831203133208803AFF00803083
:100810007F02031D0D2C0A303102031C102C112CF9
:10082000122C132C132C080083120313B40033086A
:100830001F39E03EB50000300A128A158D260A12D3
:100840008A1100300A128A158D260A128A11003088
:100850000A128A158D260A128A1100300A128A1588
:100860008D260A128A118316031345088312031377
:10087000B70083160313440883120313B600360827
:1008800037040319442C452C462C6D2C35080A12CC
:100890008A158D260A128A118312031332080A124E
:1008A0008A158D260A128A118312031331080A123F
:1008B0008A158D260A128A118312031334080A122C
:1008C0008A158D260A128A11FF3083120313B60788
:1008D0000318B70AFF30B7073F2CFF300A128A15FA
:1008E0008D260A128A11FF300A128A158D260A12E5
:1008F0008A11FF300A128A158D260A128A11FF30DA
:100900000A128A158D260A128A110800831203130F
:10091000B201AD1F8C2C8D2C942CAC09AD09AC0A06
:100920000319AD0AB201B20AAF1F972C982CA12C63
:10093000AE09AF09AE0A0319AF0A0130B0003008A2
:10094000B206B301B4012C082D040319A82CA92C5C
:10095000E02CB101B10AB72C01300310AC0DAD0D84
:10096000FF3E031DAD2C0130B0003008B107AD1FB4
:10097000BA2CBB2CAC2C01300310B30DB40DFF3ED0
:10098000031DBC2C2D082F02031DC82C2C082E0281
:10099000031CCB2CCC2CD32C2C08AE022D08031C12
:1009A000AF03AF02331401300310AD0CAC0CFF3EAB
:1009B000031DD42C0130B102031DDF2CE02CBB2C15
:1009C00032080319E42CE52CEA2CB309B409B30A64
:1009D0000319B40A3408AD003308AC000800F6016E
:1009E000F11FF32CF42CFB2CF009F109F00A031988
:1009F000F10AF601F60AF31FFE2CFF2C082DF2096E
:100A0000F309F20A0319F30A0130F4007408F60638
:100A1000F701F8017008710403190F2D102D472DEF
:100A2000F501F50A1E2D01300310F00DF10DFF3E0A
:100A3000031D142D0130F4007408F507F11F212D5A
:100A4000222D132D01300310F70DF80DFF3E031D6D
:100A5000232D71087302031D2F2D70087202031CD1
:100A6000322D332D3A2D7008F2027108031CF30366
:100A7000F302771401300310F10CF00CFF3E031D5C
:100A80003B2D0130F502031D462D472D222D760802
:100A900003194B2D4C2D512DF709F809F70A0319AD
:100AA000F80A7808F1007708F0000800F4008316CF
:100AB00003178C130C15831203178F0174088D0014
:100AC000831603170C18652D662DBA2DF501F60156
:100AD000F201F301982D8B137108831203178C0018
:100AE0005530831603178D00AA308D008C148B1798
:100AF000831203135D085E0403197F2D802D782D6A
:100B0000DD01DE0174080A128A1528250A128A11ED
:100B10007106031D8C2D8D2D922D0130F2000030B9
:100B2000F300982D0130F5070318F60A0030F60798
:100B30007608803AFF0080307F02031DA12D0A3025
:100B400075020318A42DA52DAB2D7208730403198B
:100B5000AA2DAB2D6B2D7608803AFF0080307F02E6
:100B6000031DB42D0A307502031CB72DB82DB92D05
:100B7000BA2DBA2D0800F80077081F39E03EF900B9
:100B800000300A128A1559260A128A1100300A12F8
:100B90008A1559260A128A1100300A128A15592616
:100BA0000A128A1100300A128A1559260A128A116D
:100BB000831603134508FB004408FA007A087B04F7
:100BC0000319E32DE42DE52D042E79080A128A1568
:100BD00059260A128A1176080A128A1559260A120B
:100BE0008A1175080A128A1559260A128A1178087C
:100BF0000A128A1559260A128A11FF30FA070318B9
:100C0000FB0AFF30FB07DE2DFF300A128A1559263A
:100C10000A128A11FF300A128A1559260A128A11FD
:100C2000FF300A128A1559260A128A11FF300A1259
:100C30008A1559260A128A1108000A128A15A02557
:100C40000A128A11003A031D262E272E3C2E003050
:100C50000A128A152A260A128A11FF3083120313F8
:100C6000B800FF30B9001F30BA00FF300A128A11F5
:100C7000A5270A128A117A2E8312031351080A1229
:100C80008A1584250A128A110A128A152A260A123E
:100C90008A11831203135008083E0A128A1584250C
:100CA0000A128A1183120313BC005008103E0A1264
:100CB0008A1584250A128A1183120313BD00500875
:100CC000183E0A128A1584250A128A118312031308
:100CD000BE003C08B8003D08B9003E08BA00500804
:100CE0000A128A1584250A128A110A128A11A52766
:100CF0000A128A11080006308A000408840A820752
:100D00000034013400340A34003464340034E834EC
:100D100003341034273452347534693464346F34F6
:100D200020343D342034253464342C342034683469
:100D300075346D34653464346134643420343D3446
:100D40002034253464342C342034743465346D34C8
:100D5000703465347234613474347534723461348F
:100D600020343D342034253464342C34203443344E
:100D70004F34323420343D342034253464342C3420
:100D800020344C3475346D3469346E346F347334BC
:100D9000693464346134643420343D34203425347F
:100DA000643420340D340A34003483120313B20146
:100DB000B3012C082D040319DE2EDF2E162FB101EE
:100DC000B10AED2E01300310AC0DAD0DFF3E031D39
:100DD000E32E0130B0003008B107AD1FF02EF12E28
:100DE000E22E01300310B20DB30DFF3E031DF22EB3
:100DF0002D082F02031DFE2E2C082E02031C012F8E
:100E0000022F092F2C08AE022D08031CAF03AF02DE
:100E1000321401300310AD0CAC0CFF3E031D0A2F41
:100E20000130B102031D152F162FF12E3308AD002E
:100E30003208AC0008000A128A1550240A128A11DE
:100E400021300A128A159B240A128A1104300A12D0
:100E50008A159B240A128A1101300A128A15D82594
:100E60000A128A1183120313AE00AF012E088316F3
:100E70000313A800831203132F0883160313A9007A
:100E800001300A128A15D8250A128A118312031317
:100E9000AE00AF01AE0EAF0EF030AF052E080F3929
:100EA000AF04F030AE052E0883160313A80703180D
:100EB000A90A831203132F0883160313A907080036
:100EC0000A128A1550240A128A115A300A128A15F7
:100ED0009B240A128A11B5300A128A159B240A1221
:100EE0008A1101300A128A15D8250A128A11831232
:100EF0000313AE00AF012E0883160313A60083125E
:100F000003132F0883160313A70001300A128A1552
:100F1000D8250A128A1183120313AE00AF01AE0E58
:100F2000AF0EF030AF052E080F39AF04F030AE052C
:100F30002E0883160313A6070318A70A83120313A8
:100F40002F0883160313A707080083120313BB009F
:100F50003808B1003908B2003A08B3003B080A1259
:100F60008A1114240A128A11831203133B08D30036
:100F70003808D4003908D5003A08D6005308AD0027
:100F800050080A128A11A1230A128A11831203132C
:100F90005408AD005008013E0A128A11A1230A121A
:100FA0008A11831203135508AD005008023E0A123D
:100FB0008A11A1230A128A11831203135608AD0065
:100FC0005008033E0A128A11A1230A128A1108004E
:100FD0008316031387150716F03083120313940545
:100FE000F03094058316031788013F3083160313EE
:100FF0009300831203138C11831603138C150800BE
:101878008316031387120800831203138C1D452C4B
:10188800462C402C8C11080064008001840A040650
:10189800031900340406492C8316031391140A1201
:1018A8008A1540240A128A15080083160313111595
:1018B8000A128A1540240A128A150800831603138F
:1018C80011140A128A1540240A128A150800831670
:1018D80003178C13831203130D12831603130D16AB
:1018E80008003D308312031381008316031381120D
:1018F8008111073081048B1608008316031327080B
:1019080083120313AD0083160313260883120313EF
:10191800AC00080083160313290883120313AD00D3
:1019280083160313280883120313AC0008008312DC
:101938000313AC002C0893000A128A1540240A12DB
:101948008A15831603131108080083160313071159
:10195800831603178801831203131708F0390C380C
:1019680097003F3097056008950008007D088312AE
:1019780003138F0052088E009010CF30900510137B
:10198800831603130C148312031310140800033472
:1019980000340234003401340034A734A73401344D
:1019A800A73402340134A934FF34FF34FF341F3420
:1019B800A730831603139200FC3083120313920599
:1019C80087309205831603138C14831203138C102B
:1019D8001215080083120313AC0083120C1AF52C9D
:1019E800F62CFC2C83160313981CFB2CFC2CF12CD6
:1019F80083122C08990008007E088A007F0882005C
:101A08000A128A1500250A128A158000840A040819
:101A18007D0603190034FF0A0319FE0A042DF3009A
:101A2800F201731C182D192D1D2D7008F100710875
:101A3800F2070310F00D0310F30C7308031D252D96
:101A4800262D152D72080800F000831603178C1335
:101A58000C11831203178E018F0170088D008316F5
:101A680003178C18382D392D3A2D0C1483120317AF
:101A78000C080800FF34FF34FF34FF34FF34FF3410
:101A8800FF34FF34FF34FF34643400340A34003444
:101A98008434033490340134A8346134013400347C
:101AA80083120313AF00AE012F1C5B2D5C2D602D3C
:101AB8002C08AD002D08AE070310AC0D0310AF0CB9
:101AC8002F08031D682D692D582D2E080800013098
:101AD8008316031385008316031708148814081542
:101AE800831203131F083F3980389F00C3309F05B6
:101AF8001F14831603139F179F121F120C17080039
:101B080083120313AC00831603178C130C11831272
:101B180003178E018F01831203132C0883120317F6
:101B28008D00831603178C189A2D9B2D9C2D0C1451
:101B3800831203170C08080000300A128A1584253E
:101B48000A128A1583120313AD002D080319AD2D4F
:101B5800AE2DB82D2D080319B22DB32DB82D2D0893
:101B6800031DB72DB82DBA2D0030BB2D013008004C
:101B7800831603131811831603178711831603138B
:101B88009A0120309900181218138312031318139E
:101B9800831603130C168C168312031398178316D7
:101BA800031398129816080083120313AC008316C7
:101BB800031391150A128A1540240A128A158312F2
:101BC80003131308AD002C080319EB2DEC2DF02D91
:101BD800831603139112F32D83160313911611160E
:101BE8000A128A1540240A128A15831203132D0833
:101BF8000800FB006430F0000030F1007B08F900B9
:101C0800FA017908F2007A08F3000A128A11EF241F
:101C18000A128A15700883120313E0004F08F000B7
:101C280060080A128A1513250A128A1583120313EB
:101C380095007B08F10051080A128A1156250A12EC
:101C48008A157B0883120313E2000800831203132A
:101C5800B7006430AC000030AD003708B500B601FD
:101C68003508AE003608AF000A128A1186240A1217
:101C78008A15831203132C08E0004F08AC00600893
:101C88000A128A1554250A128A158312031395001D
:101C98003708AD0051080A128A11A1230A128A15C1
:101CA800831203133708E2000800F200F30108303A
:101CB800F4007208F0007408FF3E013E652E031020
:101CC800F00CFF3E031D632E70186B2E6F2E8312CF
:101CD80003130714722E8312031307108716050EB9
:101CE800F000700C0139F1007108F304871202301A
:101CF8007402031C802E812E852E7308F000700755
:101D0800F3000130F4027408031D8B2E8C2E5D2E17
:101D1800080083120313AE00AF010830B0002E088C
:101D2800AC003008FF3E013E9B2E0310AC0CFF3E7A
:101D3800031D992E2C18A12EA52E83120313071408
:101D4800A82E8312031307108716050EAC002C0C5F
:101D58000139AD002D08AF04871202303002031C90
:101D6800B62EB72EBB2E2F08AC002C07AF000130C3
:101D7800B0023008031DC12EC22E932E0800083071
:101D8800831603138F000A128A15BC250A128A15B6
:101D98000A128A156B250A128A150A128A157524E1
:101DA8000A128A150A128A15BA240A128A150A1200
:101DB8008A15DC240A128A150A128A15A9240A121D
:101DC8008A150A128A11E8270A128A150A128A1530
:101DD8003C240A128A150A128A1562240A128A15E4
:101DE8000A128A156B240A128A15831603138601B0
:101DF8008B170B17080083120313340835040319D3
:101E0800062F072F362FB901B90A152F01300310F5
:101E1800B40DB50DFF3E031D0B2F0130B800380877
:101E2800B907B51F182F192F0A2F35083702031DB8
:101E38001F2F34083602031C222F232F292F340882
:101E4800B6023508031CB703B70201300310B50CFE
:101E5800B40CFF3E031D2A2F0130B902031D352F94
:101E6800362F192F3708B5003608B4000800831636
:101E780003132E082F040319422F432F792FAE0185
:101E8800AF012308BB002208BA002508BD002408BA
:101E9800BC000A128A1581240A128A1583120313B8
:101EA8002D0883160313BF00831203132C0883160F
:101EB8000313BE000A128A158E240A128A15831289
:101EC80003132D0883160313C100831203132C0870
:101ED80083160313C0000A128A1160270A128A1592
:101EE8000A128A111B270A128A150800FC0083129D
:101EF80003132008F5002108F6002208F7007C08E3
:101F08000A128A11BB250A128A157C088312031348
:101F1800D3002008D4002108D5002208D600530891
:101F2800F10050080A128A1156250A128A158312DE
:101F380003135408F1005008013E0A128A1156256D
:101F48000A128A15831203135508F1005008023E3D
:101F58000A128A1156250A128A1583120313560883
:101F6800F1005008033E0A128A1156250A128A15F2
:101F78000800831603132108803AFF0081307F028E
:101F8800031DC82F903020020318CB2FCC2FD12F40
:101F980083120313AE01AE0AE92F83160313210837
:101FA800803AFF0083307F02031DDC2F843020023B
:101FB8000318DF2FE02FE52F023083120313AE0042
:101FC800E92F033083120313AE005A08803AAC009D
:101FD80080302C02031DF22F2E0859020318F52F0A
:101FE800F62FFF2F831203132E08AC00AD012C0827
:081FF800D9002D08DA000800F1
:08400000FF3FFF3FFF3FFF3FC0
:04400E00E220FF3E6F
:00000001FF
