:060000000A128A110C280F
:10000800FE00030EF4000A08F5000A128A111329EB
:100018000A128A110F280A128A1185220A128A11D5
:10002800BE000A128A1186220A128A11BF000A1219
:100038008A1187220A128A11C0000A128A1188229C
:100048000A128A11C1000A128A1189220A128A1117
:10005800F9000A128A118A220A128A11FA00BA01D0
:10006800BB01BC01BD01F601F701F80183010A12C9
:100078008A11ED2983120313B5002E30B30000292D
:1000880025303906031949284A28512839080A12FF
:100098008A1162220A128A110029B4010130B507B7
:1000A800FF30350784000A128A114D220A128A117C
:1000B800B900B000B1013108003A031964280029D9
:1000C8003008003A03191229643A03196F280D3AC7
:1000D80003196F2800293308840083130008B70028
:1000E800840A0008B8000230B0003008B307B81F0F
:1000F8007E287F2888280330B0003008B404B70968
:10010800B809B70A0319B80AB901B90A3908B00019
:100118003007013E84000A128A114D220A128A1100
:10012800B1000A128A114D220A128A11B20032084D
:100138003802031DA128310837020318A428A5286E
:10014800A628B0280130B0003008B90705303906B4
:10015800031DAF28B0288A28340803390319B528A5
:10016800B628BC282D300A128A1162220A128A1176
:10017800831203133908B600F5280A30A8000030A6
:10018800A9003608B0003007013E84000A128A111F
:100198004D220A128A11A0000A128A114D220A124F
:1001A8008A11A1003808A3003708A2000A128A1190
:1001B8006B210A128A11831203132108AB0020084D
:1001C800AA000A128A11B1210A128A118312031392
:1001D8002808303EB90039080A128A1162220A1228
:1001E8008A11FF3083120313B0003008B607360AAD
:1001F800031DFF280029C128013083120313B50706
:10020800FF30350784000A128A114D220A128A111A
:10021800B9003908031D112912294428080083123E
:1002280003130C1C182919293D297708803AF00076
:100238003F08803A7002031D23293E087602031CFA
:10024800262927293129F601F7017A088312031391
:100258008F0079088E009F143B290130F607031898
:10026800F70A0030F707831203138F018E010C1071
:1002780064290C131E08F000F101F00EF10EF030A5
:10028800F10570080F39F104F030F00583160313F7
:100298001E087007F2000030031801307107F300E0
:1002A800720883120313BA007308BB008316031382
:1002B8001E088312031386000130BC000030BD0005
:1002C80075088A00740E8300FE0E7E0E09008312E4
:1002D8000313A601A701200821040319742975290D
:1002E800AC29A501A50A832901300310A00DA10D91
:1002F800FF3E031D79290130A4002408A507A11F8A
:1003080086298729782901300310A60DA70DFF3EFD
:10031800031D882921082302031D9429200822028D
:10032800031C972998299F292008A2022108031C49
:10033800A303A302261401300310A10CA00CFF3E56
:10034800031DA0290130A502031DAB29AC2987296B
:100358002708A1002608A000080083120313280814
:1003680029040319B829B929E829AD01AD0AC72913
:1003780001300310A80DA90DFF3E031DBD29013052
:10038800AC002C08AD07A91FCA29CB29BC2929080C
:100398002B02031DD12928082A02031CD429D52998
:1003A800DB292808AA022908031CAB03AB02013089
:1003B8000310A90CA80CFF3E031DDC290130AD0277
:1003C800031DE729E829CB292B08A9002A08A8003A
:1003D80008000830831603138F000A128A111A22A4
:1003E8000A128A110A128A1136220A128A110A126C
:1003F8008A1174220A128A118B170B17831203139E
:100408003C083D040319092A0A2A022ABC01BD0135
:100418003B08AF003A08AE000B300A128A113E20A2
:100428000A128A11022A0A128A110C288316031347
:100438001811831603178711831603139A012030A6
:100448009900181218138312031318138316031331
:100458000C128C1283120313981783160313981225
:1004680098160800013083160313850083160317B6
:100478000814831203131F083F3980389F00C330C4
:100488009F051F14831603139F179F121F120C1723
:10049800080002308A000408840A82070034013404
:1004A80000340A34003464340034E834033410343B
:1004B8002734253464340D340A340034831203138A
:1004C800A00083120C1A692A6A2A702A8316031359
:1004D800981C6F2A702A652A831220089900080040
:1004E8007A08831203138F0079088E009010303039
:1004F80090041013831603130C148312031310149F
:0E0508000800043400344C343B344D343B3492
:08400000FF3FFF3FFF3FFF3FC0
:04400E00E220FF3E6F
:00000001FF
